:100000006F003045130000001300000013000000D3
:100010001300000013000000130000001300000094
:100020001300000013000000130000001300000084
:08003000130000007300100032
:100038006FF09FFC000000006F00A0306F00A03040
:1000480000000000000000000000000000000000A8
:100058000000000000000000000000000000000098
:100068006FF09FF9000000006FF01FF9000000001A
:100078006FF09FF86FF05FF86FF01FF86FF0DFF721
:100088006FF09FF76FF05FF76F00000B6F00000BCA
:100098006F00200C6F00800C6F00800C6F008027B1
:1000A8006F0080276F0080276F0080276F00A028CF
:1000B8006F00A0286F00A0286F00400B0000000010
:1000C8000000000000000000000000006F00800930
:1000D8006F00000A6F00600C6F00800E6F00C01286
:1000E8006F00C0196F00201B6F00401D6FF0DFF01C
:1000F8006FF09FF06FF05FF06FF01FF06FF0DFEFC1
:100108006FF09FEF6F00E01D6F00E01D6F00402053
:100118006F0080056FF05FEE6FF01FEE6FF0DFEDA0
:1001280000000000000000000000000000000000C7
:080138000000000000000000BF
:10014000730020300945EF00103C85476315F5002A
:100150000945EF00303D730020301145EF00903C21
:100160007300203073002030730020307300203083
:100170007300203073002030411122C63734014013
:1001800093050008130504C0EF10400D19C5930531
:100190000008130504C0EF10200E32444101730023
:1001A0002030411122C6373401408545130504C073
:1001B000EF10C00A11C58545130504C0EF10C00B30
:1001C0003244410173002030411122C637340140CE
:1001D00093050004130504C0EF10400819C59305EA
:1001E0000004130504C0EF102009373401409305C3
:1001F0000002130504C0EF10600619C59305000244
:10020000130504C0EF104007324441017300203051
:10021000411122C6373401408945130504C0EF104F
:10022000E00311C58945130504C0EF10E00437341D
:1002300001409145130504C0EF10400211C59145DE
:10024000130504C0EF10400337340140A1451305E6
:1002500004C0EF10A00011C5A145130504C0EF10A4
:10026000A00137340140C145130504C0EF00107FE1
:1002700011C5C145130504C0EF100000324441010F
:1002800073002030854537050040EF00307D11C5F3
:10029000854537050040EF00307E73002030411166
:1002A00022C637040040854513050440EF00107B4B
:1002B00011C5854513050440EF00107C324441010F
:1002C00073002030411122C63714004085451305C4
:1002D0000480EF00B07811C5854513050480EF0058
:1002E000B079324441017300203073002030411155
:1002F00022C6374400409305505213050440EF10C6
:10030000C00719C59305505213050440EF10200B88
:1003100032444101730020307300203073002030DC
:1003200073002030730020300965EF00301A8547D4
:100330006315F5000965EF00701B73002030730032
:10034000203073002030730020307300203001A073
:10035000411106C6EF00900D13052003EF00500C6D
:1003600013056010EF00700B1305803E752A13050E
:100370006012EF00900A1305803E7D221305A01441
:10038000EF00B0091305803E452213052017EF004A
:10039000D0081305803E492A1305F019EF00F00735
:1003A0001305803E51221305201DEF001007130591
:1003B000803E9D2A13059020EF0030061305803EF5
:1003C000A52279BFB7170240DC4337177A0013071D
:1003D0000720C983BD8BB387E7023727F4001307D3
:1003E0000740F16585460146938505200145BA978A
:1003F00037070020232CF7006F00407AB717024020
:100400009843B706FFF841111367170098C3D84304
:1004100037060200758FD8C39843B706F7FEFD165E
:10042000758F98C39843B706FCFFFD16758F98C368
:10043000D843B70681FFFD16758FD8C337079F00D5
:1004400098C702C402C69843C166558F98C3B716B1
:100450000240130700509C42F18F3EC6A247850719
:100460003EC4B24781E7A247E397E7FEB7170240D1
:100470009C431397E7006352070885473EC63247FF
:100480008547631AF706B72702409843B706C1FFAE
:10049000FD161367070198C39843719B98C398434F
:1004A0001367270098C3B7170240D843D8C3D8436F
:1004B000D8C3D843D8C3D843758FD8C3D843B70659
:1004C0002500558FD8C39843B7060001558F98C3B0
:1004D000984393166700E3DD06FED843B716024043
:1004E000719BD8C3D84313672700D8C32147DC4288
:1004F000B18BE39EE7FE4101828002C649B7B70790
:10050000002083A7870137177A0013070720B3D786
:10051000E70293F7F70F2387F1801307803EB38735
:10052000E7022396F1808280B7F700E023A007005E
:1005300003D7C18023820700A3820700238307001B
:100540003305A702A3830700054798C337F700E0E8
:100550005C43E37FF5FE828013070008630CE50C23
:10056000797122D426D24AD04ECE52CC9357550020
:1005700006D613FA77001374F501B684B2892E8972
:10058000B5E385451145EF00901285473394870008
:1005900042044180231281006319F90093970401FA
:1005A000C183A18391E38D473EC485670A0A93877F
:1005B000473DD29793F4F40F26C684434C0026851A
:1005C000EF00E07685476317F9004E86A285268501
:1005D000EF001002B250225492540259F249624A7A
:1005E0004561828005476395E7008545214561BFE8
:1005F00009476395E7008545414571B70D47639607
:10060000E700854513050002BDBF11476396E7006B
:1006100085451305000485BF15476396E7008545AA
:10062000130500088DB71947E391E7F685451305D3
:10063000001091BF8280B7E700E07D5723A0E71844
:1006400023A2E718828001113707002006CE930706
:10065000070285462384D70003250702DC435D8D0E
:100660003335A0002AC6C13FF24032450561828081
:10067000B707002083A6070237E700E09387070249
:100680002320D710DC432322F710828001E5238C3E
:100690000180F9BF82801357850085669317270074
:1006A0009386463EB6979C4383D7C702B385F5022F
:1006B000896793870771B3D5F50201EFB75700102B
:1006C0000D899387D7B03E95C2050A05C1810CC13B
:1006D000828085476317F700B70700100D89B507BB
:1006E000DDB789476318F700B70700100D899387B6
:1006F000D710D1BF8D47E31DF7FCB70700100D8958
:100700009387D720C9B7B707002083A78701218126
:10071000856633D7B7029386463E0A05369514415F
:1007200041831316070105073307B7024182B3D788
:10073000E702FD17C207C1832396F6022394C6027F
:10074000828093070020630BF51663E4A7069307E6
:1007500010106308F51063E4A70289476301F50EE2
:1007600063E7A70069C185476305F50C82808D4763
:10077000630DF50C93070010630FF50C828093074F
:1007800000116302F51063EBA700930720106300CC
:10079000F50E930730106302F50E82809307201147
:1007A0006300F5106367F50E930730116301F510D0
:1007B0008280930730216302F51663ECA70293074A
:1007C00030206300F51263EBA70093071020630D40
:1007D000F50E93072020630FF50E828093071021FA
:1007E000630FF51063E4A712930700216302F5106D
:1007F0008280930700306307F51463EBA70093072B
:1008000000226303F512930710226306F51282801B
:10081000930720306306F514636DF51293073030AB
:100820006307F51482809306803101468545214592
:1008300025B393068031014685452545D5BF9306EE
:100840008031014685452945E5B79306803101464B
:1008500085452D45F1BF930680310146854501450B
:10086000C1BF93068031014685450545D1B7930642
:10087000803101468545094565BF930680310146B3
:1008800085450D4575B793068031014685453D4543
:1008900045B793068031014685451305300249BFAF
:1008A00093068031014685451305A00251B7930692
:1008B0008031014685451305B0029DBF9306803106
:1008C000014685451945ADB79306803101468545FA
:1008D0001D45B9BF930680310146854513050002C9
:1008E00081BF93068031014685451305100289B703
:1008F00093068031014685451305600415BF9306B4
:10090000803101468545130570041DB7930680317B
:10091000014685451305800421BF930680310146B9
:1009200085451305900429B7930680310146854516
:1009300013054002F5BD9306803101468545130538
:100940005002FDB5930680310146854513056002CE
:10095000C5B5930680310146854513057002C9BDB2
:10096000930680310146854513058002D1B5930673
:10097000803101468545130590025DBD397106DE63
:1009800022DC26DA4AD8AA844ED652D4B689328AD4
:100990002EC6453BB245B7A74A049387072033D6F6
:1009A000B70213D98400370700204A85232CF700AB
:1009B0000A094182130416003304B40233D48702B7
:1009C0009305F4FFC205C181C12085450545C521B8
:1009D00093170401C183B3874703096413040471A7
:1009E0004167130707063AC805671307473E3A9958
:1009F000231C0100B3D78702231E01000324090032
:100A0000231BF10093F7340085EB0C082285912B12
:100A100085452285EF00A07DCE852285EF00807E72
:100A200022858545EF00E07AF2506254D254425953
:100A3000B259225A216182800547639EE7000C0863
:100A40002285652322858545EF00607ACE85228543
:100A5000EF00607CF1B709470C082285639CE70032
:100A60003D2D22858545EF008078CE852285EF00DB
:100A7000207C7DB7F12D22858545EF004077CE851E
:100A80002285EF00007C69BF011122CC26CA4AC82A
:100A900006CE2A842E89B28415ED05658545130599
:100AA0000580312185679387473E0A043E940840BC
:100AB0004C0023142101231291002315010023135C
:100AC0000100230601001521F2406244D24442494C
:100AD0000561828085476315F5008545C52ED9B728
:100AE0008947E30CF5FE8D47E31EF5FA8545114570
:100AF000F5B7411106C605E18547639EF5089306E3
:100B0000803101462545893C91460146814529456C
:100B1000B240410191B48947631FF50093068031CB
:100B20000146854513056002053C91460146814515
:100B300013057002F1BFC147631DF50093068031B4
:100B4000014685450945093C9146014681450D45CB
:100B5000C1B793070002631FF50093068031014679
:100B600085451305A002CD3A9146014681451305FE
:100B7000B00279BF93072002631FF500930600318E
:100B8000014685451305A004C13A914601468145B9
:100B90001305B004B5BFB24041018280797122D4FF
:100BA00026D24AD04ECE06D62A84AE843289B68961
:100BB00029E185451165E52CCE854A851D3FB7079E
:100BC0000C003EC485679387473F0A043E9400406B
:100BD0008A8526C0228502C2231601006D25228542
:100BE0008545B52FB250225492540259F2494561BD
:100BF000828085476317F500854537050200F92493
:100C000065BF8947E31AF5FA854537050400C5BF76
:100C100081460146B9450D4595B3AA850D45E5B414
:100C200093054006B305B5020D45B5B4411106C69E
:100C3000193CF16501458546014693850520B93F7C
:100C4000EFF04FF8EFF0BF8BE137B24001454101C3
:100C500035BC970100209381E1BB174100201301AF
:100C6000613A170500001305257A97F5FF1F938554
:100C700065391386818063FAC5008322050023A0AD
:100C8000550011059105E3EAC5FE13858180938522
:100C9000C1816377B500232005001105E36DB5FE22
:100CA0009302800873A0023097F2FFFF938202390B
:100CB00093E2120073905230EFF04FF497F2FFFF7F
:100CC0009382426973901234730020309317350079
:100CD00063DA0700B707024083A707407D8D3335ED
:100CE000A0008280B70702409C43CDBF9317350018
:100CF00063D70700B707024023A2A7408280B70747
:100D00000240C8C38280B70701401387074083A70A
:100D10000740584B698F09C77D8D3335A00082800D
:100D200001458280B707014023AAA74082809C45E5
:100D300013F7070113F8F70001C7D8413368E8003B
:100D400083D5050013F7F50F39C318418146854E49
:100D50003D4F930F800293028004214E3396DE00B4
:100D6000B3F8C500631116039398260033131F01CF
:100D70001343F3FF3377E300B318180133E7E800B8
:100D8000639FF70550C98506E39AC6FD18C113078E
:100D9000F00F6375B70454412146854E3D4F930FC4
:100DA000800293028004414EB398CE0033F71501C0
:100DB0006392E8021317260001173313EF00134361
:100DC000F3FFB376D3003317E800D98E639DF701A4
:100DD000232A15010506E319C6FD54C18280E39458
:100DE00057FA10C94DB7E39757FE23281501DDB711
:100DF00019C20CC982804CC98280371702405C43FB
:100E00009146B18B6385D700A1466388D706B71793
:100E10007A00938707201CC1371602405C423707CF
:100E20000020130707009183BD8BBA9783C6070084
:100E30001C41B3D7D7005CC15442A1829D8ABA96A7
:100E400083C60600B3D6D70014C55442AD829D8A2E
:100E5000369703470700B3D7E7005CC5584239838C
:100E600093763700370700201307070136970347AB
:100E70000700B3D7E7021CC982805C435443C9838F
:100E8000BD8B1396F60089076349060037173D00AE
:100E900013070790B387E702BDBF58439316E700D7
:100EA000E3C606FE37177A0013070720E5B799C592
:100EB000371702401C4F5D8D08CF8280B717024064
:100EC000984F1345F5FF798D88CF828099C53717E4
:100ED00002405C4F5D8D48CF8280B7170240D84FEB
:100EE0001345F5FF798DC8CF8280835705003737CA
:100EF0000140130707C0C207C1836300E50237073B
:100F00000040630CE500130707406308E50037174E
:100F10000040130707806317E50003D7250093F708
:100F2000F7F8D98F03D7650093F7F7CFC207C183CE
:100F3000D98F2310F50083D745002316F50283D7F8
:100F400005002314F502B7370140938707C06316E5
:100F5000F50083C785002318F5028547231AF5009D
:100F600082808357050203D6050003D82500C207F7
:100F7000C183F99BC207C1832310F5028357050281
:100F80008356450003578501C207C1834207418349
:100F90001377C7F8518F03D68500F59BC2063366D9
:100FA0000601D18F37360140130606C0C182631394
:100FB000C50203D6A500DD9B03D8E500D18F03D67B
:100FC0004500ED9B93F6F6CFD18F03D6C50033666F
:100FD0000601D18E2312D500231CE50003D765003E
:100FE000231AE5022310F5028280835705026577F4
:100FF0001307F7CFC207C183BD9BC207C18323106C
:10100000F502835705028356450003D88500C207C1
:101010001396060183568501C18393F7F7FD758FFB
:1010200083D605004182A206558F83D6250042074C
:101030004183B3E606019206D58FB7360140C20759
:10104000938606C0C1836311D50483D6A50093F7A8
:10105000F7F703D8C5009206D58F83D64500C2079F
:10106000C183920693F7F7FBD58FFD769386F63F03
:10107000F18E03D6E500C207C183336606010A0676
:10108000D18E1396060141822312C500231CE50070
:1010900003D76500231CE5022310F50282808357E5
:1010A000050203D88500C207C18393F7F7EFC20793
:1010B000C1832310F5028357050283564500035769
:1010C000C501C20713960601420783D60500418376
:1010D0001377C7F8558F83D62500C18393F7F7DFC1
:1010E000B3E60601A206D58FB7360140C207938644
:1010F00006C04182C1836312D504FD769386F67FD4
:10110000F58F83D6A50003D8C500A206D58F83D658
:101110004500C207C183A20693F7F7BFD58FF576C6
:10112000FD16F18E03D6E500C207C18333660601C2
:101130001206D18E1396060141822312C500231E8A
:10114000E50003D76500231EE5022310F502828027
:1011500003570502FD77FD17F98F2310F502035899
:101160000502835645008357C501657703D6050000
:101170001307F7CF7D8FF9772206FD17518FB3F74D
:10118000070103D6250003D88500C206420733664F
:1011900006013206D18F37360140C207130606C05A
:1011A000C1824183C183631BC50071767D16F18EB8
:1011B00003D6C5001A06D18EC206C1822312D500FD
:1011C000231EE50003D765002310E5042310F50274
:1011D00082808357050091C593E717002310F5001F
:1011E0008280C207C183F99BC207C183C5BF8357F1
:1011F000450491C52167D98F2312F5048280C60763
:10120000C583DDBF83578501C207C183DD9BDD8DAB
:10121000231CB500828003578501FD779387F77FF4
:10122000F98FA205CD8FC207C183231CF5008280F0
:101230008357C501C207C183DD9BDD8D231EB50029
:1012400082800357C501FD779387F77FF98FA20549
:10125000CD8FC207C183231EF5008280835705010D
:101260000355C500ED8F4205418189C76D8D33352A
:10127000A00082800145828093C5F5FFC205C1812F
:101280002318B500828083560501F577FD17F58F89
:1012900083D66500397122DC06DED58F03D7C50001
:1012A0002318F5008356C500FD779387379FF58F88
:1012B00083D645002A842EC6D58F83D68500D58F48
:1012C00083D6A500D58F2316F50083574501C207A5
:1012D000C18393F7F7CFD98F231AF5006808313E01
:1012E000B747014093870780B245631EF404A257B5
:1012F0008356C4006547B387E702C206C18698419A
:1013000063D5060406070356C4004206B3D7E702B6
:10131000130740064186B3D6E702B3F7E702920609
:10132000635706028E0793872703B3D7E70213F7A5
:101330007700B367D700C207C1832314F400F250CB
:10134000625421618280925765B70A076DBF920788
:1013500093872703B3D7E702BD8BD58FE9BF81C938
:101360008357C5000967D98F2316F500828003577C
:10137000C500F977FD17F98FC5BF13F7F50F85463F
:101380001583B397B6006313D7020357C500F98FCF
:101390000357050001454207418381CB0545A181E3
:1013A000B315B5006D8F3335E00082808946631533
:1013B000D70003570501E1BF03574501C9BFA1810C
:1013C0008547B397B70093C7F7FFC207C1832310C0
:1013D000F500828000080140000C0140001001402F
:1013E00000140140002C01400000004000040040B7
:1013F0000008004000380140004400400048004020
:04140000004C00405C
:1014040000000000010203040102030406070809A6
:081414000204060800000000BC
:00000001FF
