:100000006F10703613000000130000001300000092
:100010001300000013000000130000001300000094
:100020001300000013000000130000001300000084
:08003000130000007300100032
:100038006FF09FFC000000006F0000106F00C01000
:1000480000000000000000000000000000000000A8
:100058000000000000000000000000000000000098
:100068006FF09FF9000000006FF01FF9000000001A
:100078006FF09FF86FF05FF86FF01FF86FF0DFF721
:100088006FF09FF76FF05FF76F00800C6F00400E06
:100098006F00000F6F00C00F6F0080106FF0DFF56A
:1000A8006FF09FF56FF05FF56FF01FF56FF0DFF4FD
:1000B8006FF09FF46FF05FF46F0080110000000094
:1000C8000000000000000000000000006F00400E6B
:1000D8006FF09FF26F00C0106FF01FF26FF0DFF14A
:1000E8006F0000136F0040156F0000186FF0DFF00D
:1000F8006FF09FF06FF05FF06FF01FF06FF0DFEFC1
:100108006FF09FEF6F0040196F00401C6F00401F99
:100118006F00000B6FF05FEE6FF01FEE6FF0DFED1A
:1001280000000000000000000000000000000000C7
:080138000000000000000000BF
:10014000411122C6000801003244410173002030F1
:10015000411122C6000801A0411122C60008054530
:10016000EF10B048AA8781C70545EF10704D010018
:100170003244410173002030411122C600080100C1
:100180003244410173002030411122C600080100B1
:100190003244410173002030411122C600080100A1
:1001A0003244410173002030411122C60008010091
:1001B0003244410173002030411122C60008010081
:1001C0003244410173002030411122C60008010071
:1001D0003244410173002030411122C60008010061
:1001E0003244410173002030411122C60008854588
:1001F000B7370140138507C0EF209040AA8781CB15
:100200008545B7370140138507C0EF2070460100D0
:100210003244410173002030411122C60008854557
:1002200037050040EF20D03DAA8791C785453705A7
:100230000040EF20F04301003244410173002030C0
:10024000411122C600088545B707004013850740C5
:10025000EF20103BAA8781CB8545B7070040138567
:100260000740EF20F040010032444101730020308C
:10027000411122C600088545B71700401385078045
:10028000EF201038AA8781CB8545B717004013852A
:100290000780EF20F03D010032444101730020301F
:1002A000411122C6000893055052B74701401385FB
:1002B0000780EF201068AA8789CB93055052B74773
:1002C000014013850780EF20F076010032444101A0
:1002D00073002030411122C6000893055052B747E1
:1002E000004013850740EF20D064AA8789CB93058F
:1002F0005052B747004013850740EF20B07301000C
:100300003244410173002030411122C60008930598
:100310005052B757004013850780EF209061AA879D
:1003200089CB93055052B757004013850780EF20C3
:10033000707001003244410173002030011106CE7B
:1003400022CC0010EF106072930510060145EF10EB
:10035000007F0145EF10407CAA87A307F4FE834786
:10036000F4FEBE850145EF10807DE5B7011106CE94
:1003700022CC00102326A4FE8327C4FE95E3A146C9
:1003800001469305800413052030EF00D032A146CA
:1003900001469305800413053030EF00D03135A0BD
:1003A0000327C4FE85476312F70281460146930581
:1003B000800413052020EF0010308146014693058C
:1003C000800413053020EF00102F0100F24062443A
:1003D00005618280411106C622C400088545114589
:1003E000EF10307493060031054685451305A002D1
:1003F000EF00E07D93060031054685451305B00208
:10040000EF00E07C0100B2402244410182804111B2
:1004100006C622C4000885451305A002EF0070152A
:1004200085451305B002EF00D0141305D007F52160
:1004300081451305B002EF00D0131305B004F12974
:1004400081451305A002EF00D0126545F921010096
:10045000B240224441018280411106C622C40008F4
:1004600081451305A002EF00D01081451305B002AD
:10047000EF003010130520034D2185451305A00220
:10048000EF00300F6545512981451305A002EF00AB
:10049000500E654559210100B2402244410182803D
:1004A000411106C622C40008654585298545130506
:1004B000A002EF00100C81451305B002EF00700B95
:1004C0001305B004992985451305B002EF00700AA1
:1004D0000100B240224441018280797106D622D4C3
:1004E0000018AA87A30FF4FCA30704FE8DA0814582
:1004F0001305A002EF00F0078347F4FD858B99C731
:1005000085451305B002EF00D00631A081451305E3
:10051000B002EF001006654509218347F4FD85838D
:10052000A30FF4FC85451305A002EF00900413050A
:100530002003E52681451305A002EF009003130573
:100540002003E12E8347F4FE8507A307F4FE03474B
:10055000F4FE9D47E3FDE7F80100B25022544561E7
:100560008280011106CE22CC0010AA87A307F4FED8
:10057000793D8347F4FE3E858D37F93D15370100FF
:10058000F240624405618280011106CE22CC001047
:1005900081460146B7C70200938507F21305101084
:1005A000EF007011894537050040EF208076230663
:1005B00004FEA30604FE230704FE9307C4FE3E8543
:1005C000292813054006912E9307C4FE3E8531204D
:1005D0000100F240624405618280797106D622D41E
:1005E0000018232EA4FC231204FE230304FE8327F9
:1005F000C4FD83C717002302F4FE8327C4FD83C70D
:100600000700A302F4FE8327C4FD83C7270023034A
:10061000F4FE814537050040EF200075232604FED7
:1006200061A8A1472324F4FE41A0130744FE8327B9
:10063000C4FEBA9783C707003E87832784FEFD1751
:10064000B357F740858B89CB89679385471313058B
:100650001010EF00B03001A889679385C7511305CA
:100660001010EF00B02F854537050040EF20204ADD
:100670000100854537050040EF204071AA87F5DB72
:10068000814537050040EF2080488545370500400B
:10069000EF202074814537050040EF20E06C832770
:1006A00084FEFD172324F4FE832784FEBDFF8327E9
:1006B000C4FE85072326F4FE0327C4FE8947E3F220
:1006C000E7F60100B250225445618280411106C60E
:1006D00022C40008B7170240DC43C98313F7F700B0
:1006E000B7177A00938707203307F702B727F4007C
:1006F000938707403E97B707002023ACE700854665
:100700000146F167938507200145EF00B07E0100A7
:10071000B240224441018280011122CE00102326E2
:1007200004FE232404FEB71702409443B717024087
:100730004167558F98C3B71702409843B707020027
:10074000F98F2324F4FE8327C4FE85072326F4FEB5
:10075000832784FE99E70327C4FE93070050E31C18
:10076000F7FCB71702409843B7070200F98F89C713
:1007700085472324F4FE19A0232404FE032784FEC6
:1007800085476317F70CB72702409843B727024005
:100790001367070198C3B72702409843B727024061
:1007A000719B98C3B72702409843B727024013674D
:1007B000270098C337170240B71702405843D8C3E1
:1007C00037170240B71702405843D8C337170240C3
:1007D000B71702405843D8C3B7170240D443B717DE
:1007E00002403707C1FF7D17758FD8C3B717024086
:1007F000D443B717024037072500558FD8C3B71722
:1008000002409443B717024037070001558F98C341
:100810000100B71702409843B7070002F98FF5DBD4
:10082000B7170240D843B7170240719BD8C3B71718
:100830000240D843B717024013672700D8C301000E
:10084000B7170240DC4313F7C700A147E31AF7FECE
:100850000100724405618280411106C622C400086D
:10086000B71702409843B71702401367170098C3A1
:10087000B7170240D443B71702403707FFF8758F08
:10088000D8C3B71702409443B71702403707F7FEA3
:100890007D17758F98C3B71702409443B71702406E
:1008A0003707FCFF7D17758F98C3B7170240D443F5
:1008B000B7170240370781FF7D17758FD8C3B71769
:1008C000024037079F0098C7813D0100B240224493
:1008D00041018280411122C60008B707002003A70A
:1008E0008701B7177A0093870720B357F70213F7EA
:1008F000F70F2386E18083C7C180139707014183E7
:100900009307803EB307F7021397070141832397AC
:10091000E1800100324441018280797122D60018C1
:10092000232EA4FCB7F700E023A0070083C7C180F3
:100930003E878327C4FDB387E7022326F4FEB7F77B
:1009400000E023820700B7F700E0A3820700B7F7B3
:1009500000E023830700B7F700E0A3830700B7F7A1
:1009600000E0054798C30100B7F700E091079C43FA
:100970000327C4FEE37AF7FE01003254456182800A
:10098000397106DE22DC80002326A4FC8545130590
:100990004020EF1010190325C4FC5528B70700208C
:1009A00003A78701B7C70105938707D063F6E70060
:1009B0003165EF10007121A02165EF108070B7271D
:1009C000014013850740EF10A021232C04FC232EA7
:1009D00004FC232004FEB7070E002322F4FE232488
:1009E00004FE85472306F4FE930784FDBE85B727E2
:1009F000014013850740EF1000228545B7270140CD
:100A000013850740EF104030B7270140138507409A
:100A1000EF1060330100B727014013850740EF1046
:100A2000A034AA87EDFBB727014013850740EF10DC
:100A3000A0360100B727014013850740EF10E037CB
:100A4000AA87EDFB0100F2506254216182800111FE
:100A500006CE22CC00102326A4FE8327C4FE99E7ED
:100A600081460146814501459D22A9AA0327C4FE6E
:100A700085476318F7008146014681450545812A6F
:100A800091A20327C4FE89476318F70081460146F7
:100A9000814509452D2A3DA20327C4FE8D476318D1
:100AA000F7008146014681450D45152221AA0327FD
:100AB000C4FE91476318F700814601468145114500
:100AC000392209A20327C4FE95476318F70081461F
:100AD000014681451545E528F5A00327C4FE994741
:100AE0006318F7008146014681451945CD20D9A8F4
:100AF0000327C4FE9D476318F700814601468145E0
:100B00001D45F120C1A00327C4FEA1476319F700CA
:100B100081460146814513050002552865A003273B
:100B2000C4FEA5476319F7008146014681451305B8
:100B30001002712841A80327C4FEA9476319F700D2
:100B4000814601468145130500045120A5A80327CD
:100B5000C4FEAD476319F700814601468145130580
:100B60001004B52085A00327C4FEB1476319F70020
:100B7000814601468145130520049128A1A0032741
:100B8000C4FEB5476319F700814601468145130548
:100B90003004352805A80327C4FEB9476319F700B8
:100BA00081460146814513054004152021A80327ED
:100BB000C4FEBD476318F700814601468145130511
:100BC000500431200100F240624405618280797155
:100BD00006D622D40018232EA4FC232CB4FCB28702
:100BE0002328D4FCA30BF4FC8327C4FD958393F73F
:100BF000F70F9D8BA307F4FE8327C4FD93F7F70F30
:100C0000FD8B2307F4FE0327C4FD93070008630D43
:100C1000F7148327C4FD958391E785451145EF10AF
:100C2000407061A88327C4FD13D757008547631719
:100C3000F70085452145EF10C06E41A08327C4FD14
:100C400013D7570089476317F70085454145EF10D3
:100C5000406DA5A08327C4FD13D757008D476318A7
:100C6000F700854513050002EF10A06BB9A083279C
:100C7000C4FD13D7570091476318F7008545130546
:100C80000004EF10006A15A88327C4FD13D757008E
:100C900095476318F700854513050008EF10606855
:100CA00029A88327C4FD13D7570099476317F70076
:100CB000854513050010EF10C0668347E4FE054725
:100CC000B317F700C207C1832310F4FE032784FD86
:100CD00085476317F702832704FDC207C183A183F9
:100CE000C207C18389E78D472322F4FE11A8832719
:100CF00004FDC207C183A183C207C1832322F4FE7E
:100D0000832704FDC207C18393F7F70F2324F4FE62
:100D10000347F4FE8D670A0793874728BA979C43D9
:100D20003E87930704FEBE853A85EF1060130327C4
:100D300084FD8547631BF7020347F4FE8D670A07AE
:100D400093874728BA979C43BE868347E4FE0547AE
:100D5000B317F700C207C183034774FD3A86BE8507
:100D60003685EF10803211A00100B2502254456147
:100D70008280797122D60018232EA4FCAE87A30DA1
:100D8000F4FC8327C4FD958393F7F70F9D8BA3078E
:100D9000F4FE8327C4FD93F7F70FFD8B2307F4FEC2
:100DA0000347B4FD85476312F7028347E4FE054716
:100DB000B316F7000347F4FE8D670A0793874728A9
:100DC000BA979C43368798CB05A08347E4FE054736
:100DD000B316F7000347F4FE8D670A079387472889
:100DE000BA979C433687D8CB010032544561828044
:100DF000011106CE22CC0010B7070020938707020E
:100E000005472384E700B707002083A7070291EB7B
:100E1000B707002093870702DC4381E7A30704FE9E
:100E200021A08547A307F4FE35288347F4FE3E85BD
:100E3000F240624405618280011106CE22CC00108E
:100E4000AA87A307F4FE8347F4FE81EBB7070020CF
:100E500093870702238407003D200100F24062448B
:100E600005618280411122C60008B7E700E07D5786
:100E700023A0E718B7E700E07D5723A2E718010099
:100E8000324441018280411122C60008B7E700E0E8
:100E9000370700200327070223A0E710B7E700E089
:100EA0003707002013070702584323A2E710010069
:100EB000324441018280397106DE22DC8000232623
:100EC000A4FC2324B4FC2322C4FCB6872311F4FC25
:100ED000231704FE0325C4FC3121B707002037A7E0
:100EE0004A041307072023ACE700B707002003A735
:100EF0008701832784FCB357F702C1832317F4FECD
:100F0000B707002003A787018357E4FE8507BE8645
:100F1000832784FCB387F602B357F7022316F4FE47
:100F20000357C4FE832744FC3307F702896793877E
:100F30000771B357F7022315F4FE8327C4FC13D7B8
:100F400087008357C4FEFD17C207C1838356E4FEA2
:100F50003686BE853A85CD2D85450545EF10603C2A
:100F600093070006231CF4FC8547231DF4FC8357DC
:100F7000A4FE231FF4FC231004FE231204FE832787
:100F8000C4FC8D8BB5E38327C4FC13D787008D6722
:100F90000A0793874729BA979C433E87930784FDA6
:100FA000BE853A85EF10A0548327C4FC13D7870071
:100FB0008D670A0793874729BA979C4385453E85E5
:100FC000EF10703A8327C4FC13D787008D670A0798
:100FD00093874729BA979C433E87835724FCBE8555
:100FE0003A85EF10503E81AA8327C4FC13F73700DF
:100FF00085476313F7068327C4FC13D787008D67E3
:101000000A0793874729BA979C433E87930784FD35
:10101000BE853A85EF10A0648327C4FC13D78700F0
:101020008D670A0793874729BA979C4385453E8574
:10103000EF1070338327C4FC13D787008D670A072E
:1010400093874729BA979C433E87835724FCBE85E4
:101050003A85EF10103CC5A08327C4FC13F7370076
:1010600089476313F7068327C4FC13D787008D676E
:101070000A0793874729BA979C433E87930784FDC5
:10108000BE853A85EF1000798327C4FC13D787000B
:101090008D670A0793874729BA979C4385453E8504
:1010A000EF10702C8327C4FC13D787008D670A07C5
:1010B00093874729BA979C433E87835724FCBE8574
:1010C0003A85EF10B03A85A88327C4FC13F73700A0
:1010D0008D476312F7068327C4FC13D787008D67FB
:1010E0000A0793874729BA979C433E87930784FD55
:1010F000BE853A85EF10100D8327C4FC13D78700F7
:101100008D670A0793874729BA979C4385453E8593
:10111000EF1070258327C4FC13D787008D670A075B
:1011200093874729BA979C433E87835724FCBE8503
:101130003A85EF1070388327C4FC13D787008D677A
:101140000A0793874729BA979C4385453E85EF1048
:10115000101C0100F250625421618280797122D604
:101160000018232EA4FC232CB4FC8327C4FD13D722
:1011700087008D670A0793874729BA979C4383D7CF
:10118000C7022317F4FE0357E4FE832784FD3307C9
:10119000F702896793870771B357F7022316F4FEA6
:1011A0008327C4FDA18385E38327C4FD13F737009C
:1011B000B75700109387D7B0BA978A073E878357EF
:1011C000C4FE1CC349A08327C4FD13D787008547ED
:1011D0006310F7028327C4FD13F73700B707001029
:1011E000B507BA978A073E878357C4FE1CC3A1A8D8
:1011F0008327C4FD13D7870089476311F70283272C
:10120000C4FD13F73700B70700109387D710BA97BC
:101210008A073E878357C4FE1CC335A08327C4FDBD
:1012200013D787008D476310F7028327C4FD13F798
:101230003700B70700109387D720BA978A073E87F1
:101240008357C4FE1CC3010032544561828079710A
:1012500022D60018232EA4FC232CB4FC231704FE52
:10126000231604FEB707002003A78701832784FD08
:10127000B357F702C1832316F4FEB707002003A774
:1012800087018357C4FE8507BE86832784FDB38705
:10129000F602B357F7022317F4FE8327C4FD13D7D2
:1012A00087008D670A0793874729BA979C433E8733
:1012B0008357E4FEFD17C207C1832316F702832775
:1012C000C4FD13D787008D670A0793874729BA970C
:1012D0009C433E878357C4FE2314F7020100325417
:1012E00045618280011106CE22CC00102326A4FE87
:1012F0000327C4FE930700206307F7240327C4FED7
:101300009307002063EAE70A0327C4FE930710103F
:101310006300F71C0327C4FE9307101063E2E70481
:101320000327C4FE8947630DF7160327C4FE8947C8
:1013300063ECE7008327C4FE638407140327C4FE1D
:1013400085476307F714E5AC0327C4FE8D476301A7
:10135000F7160327C4FE930700106303F716C5A40E
:101360000327C4FE93070011630CF7180327C4FE7C
:101370009307001163EFE7000327C4FE93072010D3
:101380006300F7160327C4FE930730106302F716B5
:101390007DA40327C4FE930720116304F7180327D5
:1013A000C4FE930720116365F7160327C4FE930755
:1013B00030116301F71861A40327C4FE930730219D
:1013C0006300F7200327C4FE9307302163EEE70490
:1013D0000327C4FE930730206300F71A0327C4FED7
:1013E0009307302063EFE7000327C4FE9307102024
:1013F0006303F7160327C4FE930720206305F7163F
:101400003DAC0327C4FE930710216309F718032797
:10141000C4FE9307102163ECE7180327C4FE93076B
:1014200000216304F71621AC0327C4FE93070030A4
:101430006303F71C0327C4FE9307003063EFE70044
:101440000327C4FE930700226305F7180327C4FE91
:10145000930710226308F718DDA20327C4FE930741
:101460002030630CF71A0327C4FE93072030636D06
:10147000F7180327C4FE930730306309F71AC1A297
:1014800093068031014685452145EFF04FF445AA8A
:1014900093068031014685452545EFF04FF345A27F
:1014A00093068031014685452945EFF04FF241AA68
:1014B00093068031014685452D45EFF04FF141A25D
:1014C00093068031014685450145EFF04FF085AA2E
:1014D00093068031014685450545EFF04FEF85A223
:1014E00093068031014685450945EFF04FEE81AA0C
:1014F00093068031014685450D45EFF04FED81A201
:1015000093068031014685453D45EFF04FEC05AA35
:10151000930680310146854513053002EFF02FEB2D
:1015200039AA93068031014685451305A002EFF0E4
:101530000FEA31A293068031014685451305B002BA
:10154000EFF0EFE8EDA89306803101468545194597
:10155000EFF0EFE7EDA093068031014685451D458C
:10156000EFF0EFE6E9A893068031014685451305C3
:101570000002EFF0CFE5E1A09306803101468545FA
:1015800013051002EFF0AFE45DA893068031014629
:10159000854513056004EFF08FE355A09306803175
:1015A0000146854513057004EFF06FE249A89306E4
:1015B00080310146854513058004EFF04FE141A0DD
:1015C000930680310146854513059004EFF02FE026
:1015D000BDA0930680310146854513054002EFF01A
:1015E0000FDFB1A8930680310146854513055002EF
:1015F000EFF0EFDDA9A09306803101468545130584
:101600006002EFF0CFDC25A89306803101468545C6
:1016100013057002EFF0AFDB1DA093068031014689
:10162000854513058002EFF08FDA11A8930680310B
:101630000146854513059002EFF06FD901000100C6
:10164000F240624405618280797106D622D4001886
:10165000232EA4FCAE873287231DF4FCBA87231CFB
:10166000F4FC8327C4FD81EB8545856713850780DE
:10167000EF00304B35A80327C4FD85476317F700FB
:1016800085450545EF00504E25A00327C4FD894739
:101690006317F70085450945EF00104D11A8032792
:1016A000C4FD8D476316F70085451145EF00D04B0B
:1016B0008357A4FD2314F4FE835784FD2312F4FE04
:1016C000231504FE231304FE230604FE8D6703275F
:1016D000C4FD0A0793874729BA979C433E8793071F
:1016E00044FEBE853A85EF00F0500100B25022540E
:1016F00045618280797106D622D40018232EA4FC7D
:10170000232CB4FC232AC4FC2328D4FC8327C4FD47
:1017100091E785451165EF00D04035A00327C4FD52
:1017200085476318F700854537050200EF00D04371
:1017300019A80327C4FD89476317F70085453705B6
:101740000400EF007042832504FD032544FD21229F
:10175000832784FD2320F4FE231204FE231304FEBA
:10176000231404FE231604FEB1472315F4FE8D67EF
:101770000327C4FD0A079387472ABA979C433E87ED
:10178000930704FEBE853A85EF1060718D670327CD
:10179000C4FD0A079387472ABA979C4385453E852F
:1017A000EF1030130100B2502254456182800111C4
:1017B00022CE00102326A4FEAE87A305F4FE01006E
:1017C0008D670327C4FE0A079387472ABA979C436D
:1017D00083D70700C207C18393F70708F5D38D6746
:1017E0000327C4FE0A079387472ABA979C433E877C
:1017F0008347B4FEC207C1832312F700010072447D
:1018000005618280797122D60018232EA4FC010084
:101810008D670327C4FD0A079387472ABA979C431D
:1018200083D70700C207C18393F70702F5D38D67FB
:101830000327C4FD0A079387472ABA979C4383D797
:101840004700C207C183A307F4FE8347F4FE3E8529
:10185000325445618280011106CE22CC001023262D
:10186000A4FE2324B4FE8327C4FE85E7032784FE59
:1018700085476310F702930680310146854525456B
:10188000EFF0EFB49146014681452945EFF02FB4C2
:1018900065A00327C4FE89476312F70293068031CF
:1018A0000146854513056002EFF06FB2914601468F
:1018B000814513057002EFF08FB1BDA80327C4FE68
:1018C000C1476310F70293068031014685450945FB
:1018D000EFF0EFAF9146014681450D45EFF02FAF98
:1018E000A1A80327C4FE930700026312F702930620
:1018F0008031014685451305A002EFF04FAD9146BA
:10190000014681451305B002EFF06FAC35A0032707
:10191000C4FE930720026311F702930600310146CB
:1019200085451305A004EFF08FAA91460146814535
:101930001305B004EFF0AFA90100F2406244056165
:101940008280011106CE22CC0010AA87A307F4FEE4
:101950000347F4FE8547631AF700930600310546F6
:10196000854513057004EFF08FA60347F4FE894701
:10197000631AF70093060031054685451305600498
:10198000EFF0EFA40100F240624405618280011192
:1019900006CE22CC0010AA87A307F4FE0347F4FE6C
:1019A0008947631AF700930680340546814513057D
:1019B000C002EFF0CFA10347F4FE8D47631AF70092
:1019C00093068034054681451305D002EFF02FA021
:1019D0000347F4FE9147631AF700930680340546E7
:1019E00081451305E002EFF08F9E0347F4FE954713
:1019F000631AF70093068034054681451305F0020B
:101A0000EFF0EF9C0100F240624405618280011119
:101A100006CE22CC00102326A4FE0325C4FEEFE050
:101A20003FF60100F240624405618280411106C622
:101A300022C4000881460146B9450D45EFF0AFC705
:101A40000100B240224441018280011106CE22CC25
:101A500000102326A4FE8325C4FE0D45EFF02FFFC2
:101A60000100F240624405618280411106C622C431
:101A70000008EFF0EFB785460146F1679385072030
:101A800001458D39EFE09FC4EFE0DFE40145EFE071
:101A9000FF8D0545EFE09F8D0945D53D0D45C53DC1
:101AA0001145F5351545E5353D45953739458537BA
:101AB0002D45B13F0545713509456135853F130514
:101AC000007D6137EFE05FAC3D20EFE0BF90130594
:101AD000F008EFE01FA909280145EFF0EFB501007C
:101AE000B240224441018280411122C60008010017
:101AF000324441018280411106C622C40008930687
:101B000080040546814513053002EFF04F8C01003B
:101B1000B240224441018280797106D622D4001855
:101B2000232EA4FC0325C4FDF139AA87A307F4FEE4
:101B30008347F4FE3E85B2502254456182800111F4
:101B400006CE22CC00102326A4FEAE87A305F4FE09
:101B50008347B4FEBE850325C4FE91390100F240DF
:101B600062440561828097F1FF1F9381A1CA1731FA
:101B7000002013012149171500001305E57397E5AF
:101B8000FF1F938525481386818063FAC500832251
:101B9000050023A0550011059105E3EAC5FE138554
:101BA00081809385C1816377B500232005001105ED
:101BB000E36DB5FE9302800873A0023097E2FFFF49
:101BC0009382C24793E2120073905230EFE0DFC875
:101BD00097E2FFFF9382C276739012347300203035
:101BE000011106CE22CC00102326A4FE0327C4FE3A
:101BF000B727014093870740631AF700854513050F
:101C00000020752781451305002055270100F2406B
:101C1000624405618280797122D60018232EA4FCCB
:101C2000232CB4FC232604FEA30504FE8327C4FD55
:101C3000DC432326F4FE0327C4FEB707F1FF938796
:101C4000F7EFF98F2326F4FE832784FD984383273B
:101C500084FDDC43A207D98F0327C4FED98F232636
:101C6000F4FE8327C4FD0327C4FED8C38327C4FD25
:101C70009C472326F4FE0327C4FEB7F7F1FF9387A2
:101C8000D77FF98F2326F4FE832784FD984B832783
:101C900084FDDC475D8F832784FD9C478607D98FB1
:101CA0000327C4FED98F2326F4FE8327C4FD032710
:101CB000C4FE98C78327C4FDDC572326F4FE032700
:101CC000C4FEB70710FFFD17F98F2326F4FE832704
:101CD00084FD83C74701FD1713F7F70F8347B4FE51
:101CE000D98FA305F4FE8347B4FED2070327C4FEB1
:101CF000D98F2326F4FE8327C4FD0327C4FED8D73B
:101D00000100325445618280011122CE0010232649
:101D1000A4FE2324B4FE832784FE91CB8327C4FE34
:101D20009C4713E717008327C4FE98C709A8832799
:101D3000C4FE9C4713F7E7FF8327C4FE98C7010042
:101D4000724405618280011122CE00102326A4FE78
:101D50008327C4FE9C4713E787008327C4FE98C7E8
:101D60000100724405618280797122D60018232E09
:101D7000A4FC232604FE8327C4FD9C47A18B89C7AE
:101D800085472326F4FE19A0232604FE8327C4FEDC
:101D90003E85325445618280011122CE00102326F7
:101DA000A4FE8327C4FE9C4713E747008327C4FE95
:101DB00098C70100724405618280797122D60018AB
:101DC000232EA4FC232604FE8327C4FD9C47918B6D
:101DD00089C785472326F4FE19A0232604FE8327FE
:101DE000C4FE3E85325445618280797122D6001846
:101DF000232EA4FC232604FE232404FEB70701405F
:101E0000938707409C430327C4FDF98F2324F4FEE6
:101E1000B707014093870740D84B8327C4FDF98F4C
:101E200081CB832784FE89C785472326F4FE19A02A
:101E3000232604FE8327C4FE3E85325445618280FA
:101E4000011122CE00102326A4FEB707014093877C
:101E500007400327C4FED8CB01007244056182808D
:101E6000397122DE80002326A4FC2324B4FC23261F
:101E700004FE232004FE232404FE232E04FC23223C
:101E800004FE232C04FC832784FC9C47BD8B232663
:101E9000F4FE832784FC9C47C18B89CB832784FC79
:101EA000DC430327C4FED98F2326F4FE832784FC5A
:101EB00083D7070093F7F70FF1CF8327C4FC9C4328
:101EC0002322F4FE232404FE65A8832784FE05470D
:101ED000B317F700232EF4FC832784FC83D7070075
:101EE0003E878327C4FDF98F2320F4FE032704FED9
:101EF0008327C4FD6311F708832784FE8A07232EF6
:101F0000F4FC8327C4FD3D47B317F700232CF4FCF2
:101F1000832784FD93C7F7FF032744FEF98F23220D
:101F2000F4FE8327C4FD0327C4FEB317F70003277D
:101F300044FED98F2322F4FE832784FC984793071D
:101F40008002631BF700832784FE05473317F700E1
:101F50008327C4FCD8CB05A0832784FC984793072C
:101F60008004631AF700832784FE05473317F700C0
:101F70008327C4FC98CB832784FE85072324F4FEA3
:101F8000032784FE9D47E3F2E7F48327C4FC03277D
:101F900044FE98C3832784FC03D707009307F00F00
:101FA00063F1E70E8327C4FCDC432322F4FE2324E1
:101FB00004FE75A8832784FEA1070547B317F70021
:101FC000232EF4FC832784FC83D707003E878327D6
:101FD000C4FDF98F2320F4FE032704FE8327C4FDEC
:101FE0006312F708832784FE8A07232EF4FC8327D5
:101FF000C4FD3D47B317F700232CF4FC832784FD71
:1020000093C7F7FF032744FEF98F2322F4FE8327AB
:10201000C4FD0327C4FEB317F700032744FED98F7E
:102020002322F4FE832784FC984793078002631BD6
:10203000F700832784FEA10705473317F70083279E
:10204000C4FCD8CB832784FC984793078004631B88
:10205000F700832784FEA10705473317F70083277E
:10206000C4FC98CB832784FE85072324F4FE032732
:1020700084FE9D47E3F0E7F48327C4FC032744FE76
:10208000D8C30100725421618280011122CE001058
:102090002326A4FEAE872322C4FE2315F4FE832745
:1020A00044FE99C70357A4FE8327C4FE98CB31A0F2
:1020B0000357A4FE8327C4FED8CB010072440561F8
:1020C0008280797122D60018232EA4FC232604FED8
:1020D000B7170240DC432326F4FE0327C4FED17762
:1020E000FD17F98F2326F4FE0327C4FE8327C4FDC2
:1020F000D98F2326F4FEB71702400327C4FED8C3A6
:102100000100325445618280797122D60018232E55
:10211000A4FC232604FE232404FE232204FE232001
:1021200004FEB7170240DC43B18B2326F4FE0327DD
:10213000C4FE91476302F7020327C4FEA14763056B
:10214000F7028327C4FEC5E78327C4FD37177A004B
:102150001307072098C365A08327C4FD37177A00AB
:102160001307072098C361A8B7170240D843B707E1
:102170003C00F98F2324F4FEB7170240D843C1670F
:10218000F98F2322F4FE832784FEC9838907232441
:10219000F4FE832744FE89EF032784FEB7173D0032
:1021A000938707903307F7028327C4FD98C381A85C
:1021B000B7170240D843B7070200F98F89CF03272A
:1021C00084FEB7173D00938707903307F7028327F4
:1021D000C4FD98C32DA0032784FEB7177A00938708
:1021E00007203307F7028327C4FD98C309A8832774
:1021F000C4FD37177A001307072098C30100B717EB
:102200000240DC4393F7070F2326F4FE8327C4FE26
:1022100091832326F4FEB707002013870700832746
:10222000C4FEBA9783C7070093F7F70F2320F4FE85
:102230008327C4FD9843832704FE3357F700832781
:10224000C4FDD8C3B7170240DC4393F707702326B9
:10225000F4FE8327C4FEA1832326F4FEB7070020E3
:10226000138707008327C4FEBA9783C7070093F735
:10227000F70F2320F4FE8327C4FDD843832704FEF1
:102280003357F7008327C4FD98C7B7170240D843D8
:10229000916793870780F98F2326F4FE8327C4FE76
:1022A000AD832326F4FEB70700201387070083279A
:1022B000C4FEBA9783C7070093F7F70F2320F4FEF5
:1022C0008327C4FDD843832704FE3357F7008327B1
:1022D000C4FDD8C7B7170240D843B167F98F23268A
:1022E000F4FE8327C4FEB9832326F4FEB70700203B
:1022F000138707018327C4FEBA9783C7070093F7A4
:10230000F70F2320F4FE8327C4FDD847832704FE5C
:102310003357F7028327C4FD98CB0100325445613F
:102320008280011122CE00102326A4FE2324B4FEB5
:10233000832784FE99CBB7170240944FB71702400A
:102340000327C4FE558F98CF21A8B7170240944F9A
:102350008327C4FE13C7F7FFB7170240758F98CFC6
:102360000100724405618280011122CE00102326F3
:10237000A4FE2324B4FE832784FE99CBB717024022
:10238000D44FB71702400327C4FE558FD8CF21A8DA
:10239000B7170240D44F8327C4FE13C7F7FFB71700
:1023A0000240758FD8CF010072440561828001110F
:1023B00022CE00102326A4FE2324B4FE832784FE0D
:1023C00099CBB7170240D447B71702400327C4FE82
:1023D000558FD8C721A8B7170240D4478327C4FE1A
:1023E00013C7F7FFB7170240758FD8C701007244B3
:1023F00005618280797122D60018232EA4FC232C3B
:10240000B4FC231704FE8327C4FD83D707002317DA
:10241000F4FE0327C4FDB7370140938707C0630864
:10242000F7020327C4FDB70700406302F702032742
:10243000C4FDB707004093870740630AF7000327EE
:10244000C4FDB7170040938707806311F7028357D5
:10245000E4FE93F7F7F82317F4FE832784FD03D7F0
:1024600027008357E4FED98F2317F4FE8357E4FE39
:1024700093F7F7CF2317F4FE832784FD03D7670074
:102480008357E4FED98F2317F4FE8327C4FD035737
:10249000E4FE2390E700832784FD03D747008327CA
:1024A000C4FD2396E702832784FD03D70700832713
:1024B000C4FD2394E7020327C4FDB7370140938787
:1024C00007C0631DF700832784FD83C78700139728
:1024D000070141838327C4FD2398E7028327C4FDB6
:1024E0000547239AE70001003254456182807971E3
:1024F00022D60018232EA4FC232CB4FC231504FEA2
:10250000231704FE231604FE8327C4FD83D7070286
:10251000C207C183F99B1397070141838327C4FD39
:102520002390E7028327C4FD83D707022317F4FE15
:102530008327C4FD83D747002316F4FE8327C4FDF9
:1025400083D787012315F4FE8357A4FE93F7F7F88A
:102550002315F4FE8357A4FEF19B2315F4FE832775
:1025600084FD03D707008357A4FED98F2315F4FEFB
:102570008357E4FEF59B2317F4FE832784FD03D7DE
:1025800087008357E4FED98F2317F4FE832784FD49
:1025900003D727008357E4FED98F2317F4FE0327C0
:1025A000C4FDB7370140938707C0631CF706835704
:1025B000E4FEDD9B2317F4FE832784FD03D7A700E9
:1025C0008357E4FED98F2317F4FE8357E4FEED9B77
:1025D0002317F4FE832784FD03D747008357E4FEC7
:1025E000D98F2317F4FE8357C4FE93F7F7EF231612
:1025F000F4FE8357C4FE93F7F7DF2316F4FE832718
:1026000084FD03D7C7008357C4FED98F2316F4FE79
:10261000832784FD03D7E7008357C4FED98F231691
:10262000F4FE8327C4FD0357C4FE2392E7008327EB
:10263000C4FD0357A4FE239CE700832784FD03D732
:1026400067008327C4FD239AE7028327C4FD03574D
:10265000E4FE2390E70201003254456182807971E3
:1026600022D60018232EA4FC232CB4FC231504FE30
:10267000231704FE231604FE8327C4FD83D7070215
:10268000C207C183BD9B1397070141838327C4FD04
:102690002390E7028327C4FD83D707022317F4FEA4
:1026A0008327C4FD83D747002316F4FE8327C4FD88
:1026B00083D787012315F4FE0357A4FEE577FD17A2
:1026C000F98F2315F4FE8357A4FE93F7F7CF231554
:1026D000F4FE832784FD83D70700A2071397070121
:1026E00041838357A4FED98F2315F4FE8357E4FE5C
:1026F00093F7F7FD2317F4FE832784FD83D7870024
:1027000092071397070141838357E4FED98F23175C
:10271000F4FE832784FD83D72700920713970701D0
:1027200041838357E4FED98F2317F4FE0327C4FDAA
:10273000B7370140938707C06310F70A8357E4FE59
:1027400093F7F7F72317F4FE832784FD83D7A700B9
:1027500092071397070141838357E4FED98F23170C
:10276000F4FE8357E4FE93F7F7FB2317F4FE832769
:1027700084FD83D74700920713970701418383574E
:10278000E4FED98F2317F4FE8357C4FE93F7F7BFF7
:102790002316F4FE0357C4FEFD779387F77FF98F66
:1027A0002316F4FE832784FD83D7C7008A07139777
:1027B000070141838357C4FED98F2316F4FE832774
:1027C00084FD83D7E7008A07139707014183835766
:1027D000C4FED98F2316F4FE8327C4FD0357C4FE1D
:1027E0002392E7008327C4FD0357A4FE239CE70040
:1027F000832784FD03D767008327C4FD239CE7025A
:102800008327C4FD0357E4FE2390E70201003254FE
:1028100045618280797122D60018232EA4FC232CD6
:10282000B4FC231504FE231704FE231604FE83279D
:10283000C4FD83D70702C207C18393F7F7EF13974D
:10284000070141838327C4FD2390E7028327C4FD4A
:1028500083D707022317F4FE8327C4FD83D74700DD
:102860002316F4FE8327C4FD83D7C7012315F4FE86
:102870008357A4FE93F7F7F82315F4FE8357A4FEBD
:10288000F19B2315F4FE832784FD03D707008357AC
:10289000A4FED98F2315F4FE8357E4FE93F7F7DFE8
:1028A0002317F4FE832784FD83D78700A20713979D
:1028B000070141838357E4FED98F2317F4FE832752
:1028C00084FD83D72700A20713970701418383570D
:1028D000E4FED98F2317F4FE0327C4FDB737014068
:1028E000938707C06312F70A0357E4FEFD779387C7
:1028F000F77FF98F2317F4FE832784FD83D7A70082
:10290000A2071397070141838357E4FED98F23174A
:10291000F4FE8357E4FE93F7F7BF2317F4FE8327F3
:1029200084FD83D74700A20713970701418383578C
:10293000E4FED98F2317F4FE0357C4FEFD77FD177D
:10294000F98F2316F4FE0357C4FEF977FD17F98FAC
:102950002316F4FE832784FD83D7C70092071397BD
:10296000070141838357C4FED98F2316F4FE8327C2
:1029700084FD83D7E70092071397070141838357AC
:10298000C4FED98F2316F4FE8327C4FD0357C4FE6B
:102990002392E7008327C4FD0357A4FE239EE7008C
:1029A000832784FD03D767008327C4FD239EE702A6
:1029B0008327C4FD0357E4FE2390E702010032544D
:1029C00045618280797122D60018232EA4FC232C25
:1029D000B4FC231604FE231504FE231704FE8327EC
:1029E000C4FD83D70702139707014183FD77FD17C5
:1029F000F98F1397070141838327C4FD2390E702D2
:102A00008327C4FD83D707022315F4FE8327C4FD63
:102A100083D747002317F4FE8327C4FD83D7C7015C
:102A20002316F4FE0357C4FEE577FD17F98F23162E
:102A3000F4FE8357C4FE93F7F7CF2316F4FE8327E3
:102A400084FD83D70700A2071397070141838357AB
:102A5000C4FED98F2316F4FE0357A4FEF977FD17A1
:102A6000F98F2315F4FE832784FD83D78700B207EF
:102A70001397070141838357A4FED98F2315F4FED2
:102A8000832784FD83D72700B2071397070141836B
:102A90008357A4FED98F2315F4FE0327C4FDB7374F
:102AA0000140938707C06316F7020357E4FEF177EE
:102AB000FD17F98F2317F4FE832784FD83D7C70002
:102AC0009A071397070141838357E4FED98F231791
:102AD000F4FE8327C4FD0357E4FE2392E700832717
:102AE000C4FD0357C4FE239EE700832784FD03D75C
:102AF00067008327C4FD2390E7048327C4FD0357A1
:102B0000A4FE2390E7020100325445618280011146
:102B100022CE00102326A4FE2324B4FE832784FEA5
:102B20008DC38327C4FE83D70700C207C18393E701
:102B300017001397070141838327C4FE2390E70002
:102B400039A88327C4FE83D70700C207C183F99B36
:102B50001397070141838327C4FE2390E7000100F8
:102B6000724405618280011122CE00102326A4FE4A
:102B70002324B4FE832784FE95C38327C4FE83D712
:102B80004704139707014183E177D98F1397070112
:102B900041838327C4FE2392E70415A08327C4FE44
:102BA00083D74704139707014183A167FD17F98F66
:102BB0001397070141838327C4FE2392E704010092
:102BC000724405618280797122D60018232EA4FCFC
:102BD000AE87231DF4FC231704FE8327C4FD83D78F
:102BE00087012317F4FE8357E4FEDD9B2317F4FED1
:102BF0000357E4FE8357A4FDD98F2317F4FE8327E0
:102C0000C4FD0357E4FE239CE700010032544561F4
:102C10008280797122D60018232EA4FCAE87231D52
:102C2000F4FC231704FE8327C4FD83D787012317F1
:102C3000F4FE0357E4FEFD779387F77FF98F2317A0
:102C4000F4FE8357A4FDA20713970701418383571E
:102C5000E4FED98F2317F4FE8327C4FD0357E4FE57
:102C6000239CE7000100325445618280797122D6AD
:102C70000018232EA4FCAE87231DF4FC231704FEAA
:102C80008327C4FD83D7C7012317F4FE8357E4FECF
:102C9000DD9B2317F4FE0357E4FE8357A4FDD98F71
:102CA0002317F4FE8327C4FD0357E4FE239EE700A9
:102CB0000100325445618280797122D60018232E9A
:102CC000A4FCAE87231DF4FC231704FE8327C4FD58
:102CD00083D7C7012317F4FE0357E4FEFD779387DC
:102CE000F77FF98F2317F4FE8357A4FDA2071397EC
:102CF000070141838357E4FED98F2317F4FE83270E
:102D0000C4FD0357E4FE239EE700010032544561F1
:102D10008280797122D60018232EA4FCAE87231D51
:102D2000F4FC231704FE8327C4FD83D7070223176F
:102D3000F4FE8357E4FE93F7F7FD2317F4FE835761
:102D4000A4FD92071397070141838357E4FED98FAF
:102D50002317F4FE8327C4FD0357E4FE2390E70204
:102D60000100325445618280011122CE00102326D9
:102D7000A4FEAE872315F4FE8327C4FE0357A4FEEA
:102D80002392E7020100724405618280797122D6A4
:102D90000018232EA4FCAE87231DF4FC232604FE7A
:102DA0008327C4FD83D70701139707014183835706
:102DB000A4FDF98FC207C18389C785472326F4FE86
:102DC00019A0232604FE8327C4FE3E8532544561A4
:102DD0008280011122CE00102326A4FEAE87231587
:102DE000F4FE8357A4FE93C7F7FF139707014183AF
:102DF0008327C4FE2398E7000100724405618280A6
:102E0000797122D60018232EA4FCAE87231DF4FC72
:102E1000232604FE231504FE231404FE8327C4FD89
:102E200083D707011397070141838357A4FDF98FC7
:102E30002315F4FE8327C4FD83D7C700139707012A
:102E400041838357A4FDF98F2314F4FE8357A4FE16
:102E500081CB835784FE89C785472326F4FE19A0BA
:102E6000232604FE8327C4FE3E85325445618280BA
:102E7000011122CE00102326A4FEAE872315F4FEF6
:102E80008357A4FE93C7F7FF139707014183832756
:102E9000C4FE2398E70001007244056182805D71E1
:102EA00086C6A2C48008232EA4FA232CB4FA2326B3
:102EB00004FE232404FE232204FE232004FE232EEA
:102EC00004FC8327C4FB232EF4FC8327C4FB83D795
:102ED0000701C207C1832326F4FE0327C4FEB5679A
:102EE000FD17F98F2326F4FE832784FB83D7670021
:102EF0003E878327C4FED98F2326F4FE8327C4FE92
:102F00001397070141838327C4FB2398E700832796
:102F1000C4FB83D7C700C207C1832326F4FE03275F
:102F2000C4FEBD679387379FF98F2326F4FE83275E
:102F300084FB03D74700832784FB83D78700D98F7F
:102F4000139707014183832784FB83D7A700D98F79
:102F5000C207C1833E878327C4FED98F2326F4FE90
:102F60008327C4FE1397070141838327C4FB23965D
:102F7000E7008327C4FB83D74701C207C183232609
:102F8000F4FE0327C4FEC1679387F7CFF98F23268A
:102F9000F4FE832784FB83D7C7003E878327C4FEC4
:102FA000D98F2326F4FE8327C4FE1397070141839C
:102FB0008327C4FB239AE700930784FC3E85EFF048
:102FC000AF940327C4FDB747014093870780631779
:102FD000F700832744FD2324F4FE29A0832704FD62
:102FE0002324F4FE8327C4FB83D7C700C207C18311
:102FF000C207C18763D20702032784FEBA87860708
:10300000BA978E073E97832784FB9C438607B35766
:10301000F7022322F4FE05A0032784FEBA87860761
:10302000BA978E073E97832784FB9C438A07B35742
:10303000F7022322F4FE032744FE93074006B3570A
:10304000F70292072326F4FE8327C4FE13D7470016
:1030500093074006B307F702032744FEB307F74080
:103060002320F4FE8327C4FB83D7C700C207C18394
:10307000C207C18763D20702832704FE8E07138726
:10308000270393074006B357F7029D8B0327C4FE1F
:10309000D98F2326F4FE05A0832704FE9207138709
:1030A000270393074006B357F702BD8B0327C4FEDF
:1030B000D98F2326F4FE8327C4FE1397070141838B
:1030C0008327C4FB2394E7000100B64026446161D6
:1030D0008280011122CE00102326A4FE2324B4FEF8
:1030E000832784FE95C38327C4FE83D7C700139725
:1030F000070141838967D98F13970701418383278C
:10310000C4FE2396E70015A08327C4FE83D7C7001B
:10311000139707014183F977FD17F98F139707017B
:1031200041838327C4FE2396E700010072440561B2
:103130008280797122D60018232EA4FCAE87231D2D
:10314000F4FC232204FE232604FE232004FE232471
:1031500004FE8357A4FD93F7F70F958393F7F70FBA
:103160002320F4FE8357A4FDFD8B2326F4FE832742
:10317000C4FE0547B317F7002326F4FE032704FE19
:103180008547631FF7008327C4FD83D7C700C207A5
:10319000C1833E878327C4FEF98F2326F4FE3DA812
:1031A000032704FE8947631FF7008327C4FD83D7E5
:1031B0000701C207C1833E878327C4FEF98F2326F8
:1031C000F4FE29A88327C4FD83D74701C207C18322
:1031D0003E878327C4FEF98F2326F4FE8357A4FD80
:1031E000A183C207C1832322F4FE832744FE05473F
:1031F000B317F7002322F4FE8327C4FD83D707000B
:10320000C207C1833E87832744FEF98F2322F4FE41
:103210008327C4FE81CB832744FE89C785472324A7
:10322000F4FE19A0232404FE832784FE3E85325435
:1032300045618280797122D60018232EA4FCAE87C6
:10324000231DF4FC231704FE231604FE8357A4FD5C
:10325000A1832317F4FE8357E4FE0547B317F70055
:103260002316F4FE8357C4FE93C7F7FF1397070195
:1032700041838327C4FD2390E70001003254456158
:103280008280000000080140000C01400010014055
:1032900000140140002C01400000004000040040E8
:1032A0000008004000380140004400400048004051
:0432B000004C00408E
:1032B40000000000010203040102030406070809D8
:0832C4000204060800000000EE
:00000001FF
