:100000006F00F04D1300000013000000130000000B
:100010001300000013000000130000001300000094
:100020001300000013000000130000001300000084
:08003000130000007300100032
:100038006FF09FFC000000006F00A0306F00A03040
:1000480000000000000000000000000000000000A8
:100058000000000000000000000000000000000098
:100068006FF09FF9000000006FF01FF9000000001A
:100078006FF09FF86FF05FF86FF01FF86FF0DFF721
:100088006FF09FF76FF05FF76F00000B6F00000BCA
:100098006F00200C6F00800C6F00800C6F008027B1
:1000A8006F0080276F0080276F0080276F00A028CF
:1000B8006F00A0286F00A0286F00400B0000000010
:1000C8000000000000000000000000006F00800930
:1000D8006F00000A6F00600C6F00800E6F00C01286
:1000E8006F00C0196F00201B6F00401D6FF0DFF01C
:1000F8006FF09FF06FF05FF06FF01FF06FF0DFEFC1
:100108006FF09FEF6F00E01D6F00E01D6F00402053
:100118006F0080056FF05FEE6FF01FEE6FF0DFEDA0
:1001280000000000000000000000000000000000C7
:080138000000000000000000BF
:10014000730020300945EF00D04485476315F50062
:100150000945EF00F045730020301145EF00504590
:100160007300203073002030730020307300203083
:100170007300203073002030411122C63734014013
:1001800093050008130504C0EF10A01919C59305C5
:100190000008130504C0EF10801A324441017300B7
:1001A0002030411122C6373401408545130504C073
:1001B000EF10201711C58545130504C0EF10201856
:1001C0003244410173002030411122C637340140CE
:1001D00093050004130504C0EF10A01419C593057E
:1001E0000004130504C0EF10801537340140930557
:1001F0000002130504C0EF10C01219C593050002D8
:10020000130504C0EF10A0133244410173002030E5
:10021000411122C6373401408945130504C0EF104F
:10022000401011C58945130504C0EF104011373443
:1002300001409145130504C0EF10A00E11C5914572
:10024000130504C0EF10A00F37340140A14513057A
:1002500004C0EF10000D11C5A145130504C0EF1037
:10026000000E37340140C145130504C0EF10600B88
:1002700011C5C145130504C0EF10600C32444101A3
:1002800073002030854537050040EF10800911C507
:10029000854537050040EF10800A7300203041117A
:1002A00022C637040040854513050440EF1060075F
:1002B00011C5854513050440EF1060083244410123
:1002C00073002030411122C63714004085451305C4
:1002D0000480EF10000511C5854513050480EF105B
:1002E0000006324441017300203073002030411178
:1002F00022C6374400409305505213050440EF10C6
:10030000201419C59305505213050440EF108017AF
:1003100032444101730020307300203073002030DC
:1003200073002030730020300965EF00F02285470C
:100330006315F5000965EF00302473002030730069
:10034000203073002030730020307300203001A073
:10035000411106C6EF00901201A0411106C60DE141
:10036000A14601469305800413052030AD2DA1461A
:1003700001469305800413053030B2404101A5A524
:1003800085476310F50281460146930580041305F5
:100390002020912D814601469305800413053020CD
:1003A000E9BFB24041018280B7C502004111938587
:1003B00005F2130510108146014606C62D25B240F0
:1003C00089453705004041016F001072797126D2CE
:1003D0004AD04ECE52CC06D622D483471500814552
:1003E00064002306F100834705009309F100A3068A
:1003F000F10083472500370500402307F100EF0097
:1004000050708965138AC55113894513214483C7E8
:1004100004007D14CA85B3D78740858B91E3D285CC
:1004200013051010212E854537050040EF0030637D
:10043000854537050040EF00306D7DD98145370592
:100440000040EF00D061854537050040EF00906C1B
:10045000814537050040EF00D06A55F88504E397E1
:1004600099FAB250225492540259F249624A4561B3
:100470008280B7170240DC4337177A001307072042
:10048000C983BD8BB387E7023727F4001307074002
:10049000F16585460146938505200145BA973707E2
:1004A0000020232CF7006F000076B7170240984316
:1004B000B706FFF841111367170098C3D8433706F2
:1004C0000200758FD8C39843B706F7FEFD16758FE7
:1004D00098C39843B706FCFFFD16758F98C3D843A1
:1004E000B70681FFFD16758FD8C337079F0098C7E1
:1004F00002C402C69843C166558F98C3B71602401E
:10050000130700509C42F18F3EC6A24785073EC4A8
:10051000B24781E7A247E397E7FEB71702409C4343
:100520001397E7006352070885473EC63247854761
:10053000631AF706B72702409843B706C1FFFD16B6
:100540001367070198C39843719B98C39843136737
:10055000270098C3B7170240D843D8C3D843D8C39D
:10056000D843D8C3D843758FD8C3D843B70625001E
:10057000558FD8C39843B7060001558F98C3984349
:1005800093166700E3DD06FED843B7160240719B61
:10059000D8C3D84313672700D8C32147DC42B18BA7
:1005A000E39EE7FE4101828002C649B7B7070020FB
:1005B00083A7870137177A0013070720B3D7E7020D
:1005C00093F7F70F2387F1801307803EB387E70285
:1005D0002396F1808280B7F700E023A0070003D7BD
:1005E000C18023820700A38207002383070033050D
:1005F000A702A3830700054798C337F700E05C43D1
:10060000E37FF5FE828013070008630CE50C797127
:1006100022D426D24AD04ECE52CC9357550006D67D
:1006200013FA77001374F501B684B2892E89B5E305
:1006300085451145EF0070108547339487004204CB
:100640004180231281006319F90093970401C1834B
:10065000A18391E38D473EC485670A0A9387C74902
:10066000D29793F4F40F26C684434C002685EF00FE
:10067000C07485476317F9004E86A2852685EF0072
:10068000E07FB250225492540259F249624A4561C5
:10069000828005476395E7008545214561BF09478D
:1006A0006395E7008545414571B70D476396E700BF
:1006B000854513050002BDBF11476396E7008545D8
:1006C0001305000485BF15476396E70085451305AC
:1006D00000088DB71947E391E7F68545130500102B
:1006E00091BF8280B7E700E07D5723A0E71823A2DF
:1006F000E7188280011106CE9387418185462384C5
:10070000D70003A54181DC435D8D3335A0002AC6A7
:10071000D13FF24032450561828083A6418137E7AF
:1007200000E0938741812320D710DC432322F71078
:10073000828001E5238E0180CDB78280135785002A
:100740008566931727009386C64AB6979C4383D73E
:10075000C702B385F502896793870771B3D5F502A0
:1007600001EFB75700100D899387D7B03E95C205AA
:100770000A05C1810CC1828085476317F700B7075E
:1007800000100D89B507DDB789476318F700B70773
:1007900000100D899387D710D1BF8D47E31DF7FC5B
:1007A000B70700100D899387D720C9B7930700209A
:1007B000630BF51663E4A706930710106308F510A2
:1007C00063E4A70289476301F50E63E7A70069C1E7
:1007D00085476305F50C82808D47630DF50C930703
:1007E0000010630FF50C8280930700116302F5106F
:1007F00063EBA700930720106300F50E93073010FA
:100800006302F50E8280930720116300F510636781
:10081000F50E930730116301F510828093073021A4
:100820006302F51663ECA702930730206300F5120C
:1008300063EBA70093071020630DF50E93072020AC
:10084000630FF50E828093071021630FF51063E4A8
:10085000A712930700216302F510828093070030EE
:100860006307F51463EBA700930700226303F512F7
:10087000930710226306F5128280930720306306E7
:10088000F514636DF512930730306307F514828019
:1008900093068031014685452145B5B393068031E5
:1008A000014685452545D5BF9306803101468545DE
:1008B0002945E5B793068031014685452D45F1BFB1
:1008C00093068031014685450145C1BF93068031BD
:1008D000014685450545D1B79306803101468545DA
:1008E000094565BF93068031014685450D4575B7BD
:1008F00093068031014685453D4545B793068031D5
:10090000014685451305300249BF930680310146F3
:1009100085451305A00251B79306803101468545F0
:100920001305B0029DBF93068031014685451945E8
:10093000ADB793068031014685451D45B9BF930685
:100940008031014685451305000281BF9306803141
:10095000014685451305100289B79306803101468B
:1009600085451305600415BF930680310146854512
:10097000130570041DB793068031014685451305A4
:10098000800421BF930680310146854513059004FC
:1009900029B7930680310146854513054002F5BD10
:1009A000930680310146854513055002FDB5930637
:1009B00080310146854513056002C5B59306803137
:1009C0000146854513057002C9BD93068031014675
:1009D000854513058002D1B59306803101468545D2
:1009E000130590025DBD397106DE22DC26DA4AD895
:1009F000AA844ED652D4B689328A2EC6453BB24519
:100A0000B7A74A049387072033D6B70213D98400C7
:100A1000370700204A85232CF7000A094182130476
:100A200016003304B40233D487029305F4FFC205E1
:100A3000C181C12085450545092393170401C18360
:100A4000B38747030964130404714167130707065A
:100A50003AC805671307C74A3A99231C0100B3D760
:100A60008702231E010003240900231BF10093F7D2
:100A7000340085EB0C0822859D2B85452285EF00EF
:100A8000C07FCE852285EF00B00022858545EF002E
:100A9000007DF2506254D2544259B259225A216117
:100AA00082800547639EE7000C082285E9232285A2
:100AB0008545EF00807CCE852285EF00807EF1B7F2
:100AC00009470C082285639CE7008525228585451A
:100AD000EF00A07ACE852285EF00407E7DB7FD2D08
:100AE00022858545EF006079CE852285EF00207E46
:100AF00069BF011122CC26CA4AC806CE2A842E8993
:100B0000B28415ED05658545130505803D21856792
:100B10009387C74A0A043E9408404C0023142101DD
:100B20002312910023150100231301002306010065
:100B30009921F2406244D24442490561828085474E
:100B40006315F50085450929D9B78947E30CF5FEFA
:100B50008D47E31EF5FA85451145F5B7411106C6E7
:100B600005E18547639EF5089306803101462545DA
:100B7000593C9146014681452945B240410161B445
:100B80008947631FF50093068031014685451305AB
:100B90006002953C91460146814513057002F1BF04
:100BA000C147631DF500930680310146854509451F
:100BB000993C9146014681450D45C1B79307000216
:100BC000631FF50093068031014685451305A00299
:100BD0001D3C9146014681451305B00279BF93073C
:100BE0002002631FF5009306003101468545130579
:100BF000A004113C9146014681451305B004B5BFE0
:100C0000B24041018280797122D426D24AD04ECEA0
:100C100006D62A84AE843289B68931E185451165CC
:100C2000292ECE854A851D3FB7070C003EC4856737
:100C30009387C74B0A043E9400408A8526C02285CC
:100C400002C223160100192722858545EF00807D09
:100C5000B250225492540259F2494561828085472C
:100C60006317F500854537050200FD245DBF894700
:100C7000E319F5FA854537050400C5BF411106C6DD
:100C8000953CF16585460146938505200145A53FC4
:100C9000EFF02FFEEFF09F910145EFF00FEC0545CF
:100CA000EFF0AFEBEFF04FF009280545EFF0BF9202
:100CB0002920B24001454101ADBC411122C4138538
:100CC000018106C6EFF08FF013850181EFF00FF080
:100CD0002244B2401305200341016FF0DF8F9701DA
:100CE0000020938121B3174100201301A131170582
:100CF00000001305E57D97F5FF1F9385A53013864A
:100D0000818063FAC5008322050023A055001105E8
:100D10009105E3EAC5FE138581809385018263779F
:100D2000B500232005001105E36DB5FE9302800890
:100D300073A0023097F2FFFF9382423093E21200D9
:100D400073905230EFF06FF697F2FFFF938282605C
:100D500073901234730020309317350063DA070064
:100D6000B707024083A707407D8D3335A0008280FE
:100D7000B70702409C43CDBF9317350063D70700E8
:100D8000B707024023A2A7408280B7070240C8C32A
:100D90008280B70701401387074083A70740584B5D
:100DA000698F09C77D8D3335A0008280014582801F
:100DB000B707014023AAA74082809C4513F707018B
:100DC00013F8F70001C7D8413368E80083D5050060
:100DD00013F7F50F39C318418146854E3D4F930FE8
:100DE000800293028004214E3396DE00B3F8C500E2
:100DF000631116039398260033131F011343F3FF67
:100E00003377E300B318180133E7E800639FF70571
:100E100050C98506E39AC6FD18C11307F00F637524
:100E2000B70454412146854E3D4F930F80029302F3
:100E30008004414EB398CE0033F715016392E80267
:100E40001317260001173313EF001343F3FFB37694
:100E5000D3003317E800D98E639DF701232A1501CB
:100E60000506E319C6FD54C18280E39457FA10C900
:100E70004DB7E39757FE23281501DDB719C20CC9FA
:100E800082804CC98280371702405C439146B18B07
:100E90006385D700A1466388D706B7177A00938782
:100EA00007201CC1371602405C4237070020130799
:100EB00007009183BD8BBA9783C607001C41B3D747
:100EC000D7005CC15442A1829D8ABA9683C60600AF
:100ED000B3D6D70014C55442AD829D8A36970347D6
:100EE0000700B3D7E7005CC55842398393763700D3
:100EF0003707002013070701369703470700B3D7CA
:100F0000E7021CC982805C435443C983BD8B13969E
:100F1000F60089076349060037173D00130707905D
:100F2000B387E702BDBF58439316E700E3C606FE4A
:100F300037177A0013070720E5B799C5371702401E
:100F40001C4F5D8D08CF8280B7170240984F134524
:100F5000F5FF798D88CF828099C5371702405C4FA5
:100F60005D8D48CF8280B7170240D84F1345F5FFFB
:100F7000798DC8CF8280835705003737014013072A
:100F800007C0C207C1836300E50237070040630C56
:100F9000E500130707406308E50037170040130713
:100FA00007806317E50003D7250093F7F7F8D98F7B
:100FB00003D7650093F7F7CFC207C183D98F2310FA
:100FC000F50083D745002316F50283D705002314C7
:100FD000F502B7370140938707C06316F50083C752
:100FE00085002318F5028547231AF5008280835770
:100FF000050203D6050003D82500C207C183F99B6B
:10100000C207C1832310F5028357050283564500AA
:1010100003578501C207C183420741831377C7F88D
:10102000518F03D68500F59BC20633660601D18F2A
:1010300037360140130606C0C1826313C50203D6CA
:10104000A500DD9B03D8E500D18F03D64500ED9BBD
:1010500093F6F6CFD18F03D6C50033660601D18E45
:101060002312D500231CE50003D76500231AE502EF
:101070002310F50282808357050265771307F7CFA7
:10108000C207C183BD9BC207C1832310F5028357EA
:1010900005028356450003D88500C2071396060152
:1010A00083568501C18393F7F7FD758F83D60500BD
:1010B0004182A206558F83D6250042074183B3E6BD
:1010C00006019206D58FB7360140C207938606C047
:1010D000C1836311D50483D6A50093F7F7F703D82E
:1010E000C5009206D58F83D64500C207C1839206FC
:1010F00093F7F7FBD58FFD769386F63FF18E03D6F7
:10110000E500C207C183336606010A06D18E139635
:10111000060141822312C500231CE50003D76500A8
:10112000231CE5022310F50282808357050203D8B1
:101130008500C207C18393F7F7EFC207C18323106D
:10114000F50283570502835645000357C501C207C0
:1011500013960601420783D6050041831377C7F82B
:10116000558F83D62500C18393F7F7DFB3E60601D9
:10117000A206D58FB7360140C207938606C04182CA
:10118000C1836312D504FD769386F67FF58F83D6EF
:10119000A50003D8C500A206D58F83D64500C20797
:1011A000C183A20693F7F7BFD58FF576FD16F18EB2
:1011B00003D6E500C207C183336606011206D18E4D
:1011C0001396060141822312C500231EE50003D7B2
:1011D0006500231EE5022310F502828003570502F5
:1011E000FD77FD17F98F2310F5020358050283568A
:1011F00045008357C501657703D605001307F7CF70
:101200007D8FF9772206FD17518FB3F7070103D6BB
:10121000250003D88500C206420733660601320660
:10122000D18F37360140C207130606C0C182418301
:10123000C183631BC50071767D16F18E03D6C50090
:101240001A06D18EC206C1822312D500231EE500E4
:1012500003D765002310E5042310F502828083572D
:10126000050091C593E717002310F5008280C2079F
:10127000C183F99BC207C183C5BF8357450491C58C
:101280002167D98F2312F5048280C607C583DDBF8D
:1012900083578501C207C183DD9BDD8D231CB5000B
:1012A000828003578501FD779387F77FF98FA20529
:1012B000CD8FC207C183231CF50082808357C501EF
:1012C000C207C183DD9BDD8D231EB50082800357DD
:1012D000C501FD779387F77FF98FA205CD8FC207F0
:1012E000C183231EF5008280835705029205C20741
:1012F000C18393F7F7FDCD8FC207C1832310F50299
:1013000082802312B5028280035505016D8D33352D
:10131000A000828093C5F5FFC205C1812318B500E6
:101320008280835705010355C500ED8F4205418139
:1013300089C76D8D3335A00082800145828093C5B9
:10134000F5FFC205C1812318B500828083560501CF
:10135000F577FD17F58F83D66500397122DC06DE3F
:10136000D58F03D7C5002318F5008356C500FD7738
:101370009387379FF58F83D645002A842EC6D58F55
:1013800083D68500D58F83D6A500D58F2316F5008B
:1013900083574501C207C18393F7F7CFD98F231A2B
:1013A000F5006808CD34B747014093870780B24500
:1013B000631EF404A2578356C4006547B387E7024F
:1013C000C206C186984163D5060406070356C400C9
:1013D0004206B3D7E702130740064186B3D6E702B9
:1013E000B3F7E7029206635706028E079387270337
:1013F000B3D7E70213F77700B367D700C207C183FB
:101400002314F400F250625421618280925765B730
:101410000A076DBF920793872703B3D7E702BD8BF7
:10142000D58FE9BF81C98357C5000967D98F2316B6
:10143000F50082800357C500F977FD17F98FC5BF06
:1014400013F7F50F85461583B397B6006313D702DC
:101450000357C500F98F0357050001454207418333
:1014600081CB0545A181B315B5006D8F3335E00003
:10147000828089466315D70003570501E1BF0357F2
:101480004501C9BFA1818547B397B70093C7F7FF4F
:10149000C207C1832310F5008280000000080140CC
:1014A000000C01400010014000140140002C0140DC
:1014B00000000040000400400008004000380140E7
:0C14C0000044004000480040004C004088
:1014CC0000000000010203040102030406070809DE
:0814DC000204060800000000F4
:00000001FF
