:100000006F00F067130000001300000013000000F1
:100010001300000013000000130000001300000094
:100020001300000013000000130000001300000084
:08003000130000007300100032
:100038006FF09FFC000000006F00203B6F00203B2A
:1000480000000000000000000000000000000000A8
:100058000000000000000000000000000000000098
:100068006FF09FF9000000006FF01FF9000000001A
:100078006FF09FF86FF05FF86FF01FF86FF0DFF721
:100088006FF09FF76FF05FF76F0080156F008015B6
:100098006F00A0166F0000176F0000176F00003286
:1000A8006F0000326F0000326F0000326F002033A3
:1000B8006F0020336F0020336F00C0150000000070
:1000C8000000000000000000000000006F000014A5
:1000D8006F0080146F00E0166F0000196F00401D5C
:1000E8006F0040246F00A0256F00C0276FF0DFF07D
:1000F8006FF09FF06FF05FF06FF01FF06FF0DFEFC1
:100108006FF09FEF6F0060286F0060286F00C02AB3
:100118006F0000106FF05FEE6FF01FEE6FF0DFED15
:1001280000000000000000000000000000000000C7
:080138000000000000000000BF
:100140003D432A876373C3029377F700BDEFADE5A4
:10015000937606FF3D8ABA960CC34CC30CC74CC7B6
:100160004107E36BD7FE11E28280B306C3408A06E3
:100170009702000096966780A6002307B700A306A3
:10018000B7002306B700A305B7002305B700A304F3
:10019000B7002304B700A303B7002303B700A302EB
:1001A000B7002302B700A301B7002301B700A300E3
:1001B000B7002300B700828093F5F50F9396850072
:1001C000D58D93960501D58D61B79396270097023B
:1001D000000096968682E78086FA9680C1171D8F6A
:1001E0003E96E374C3F8A5B7730020300945EF00CD
:1001F000505485476315F5000945EF0070557300AD
:1002000020301145EF00D0547300203073002030AF
:1002100073002030730020307300203073002030D2
:10022000411122C63734014093050008130504C06C
:10023000EF10802519C593050008130504C0EF10C1
:1002400060263244410173002030411122C6373408
:1002500001408545130504C0EF10002311C58545F5
:10026000130504C0EF100024324441017300203014
:10027000411122C63734014093050004130504C020
:10028000EF10802019C593050004130504C0EF107A
:1002900060213734014093050002130504C0EF10BC
:1002A000A01E19C593050002130504C0EF10801F9E
:1002B0003244410173002030411122C637340140DD
:1002C0008945130504C0EF10201C11C5894513058D
:1002D00004C0EF10201D373401409145130504C0C0
:1002E000EF10801A11C59145130504C0EF10801B53
:1002F00037340140A145130504C0EF10E01811C5C3
:10030000A145130504C0EF10E01937340140C14581
:10031000130504C0EF10401711C5C145130504C0F3
:10032000EF104018324441017300203085453705F5
:100330000040EF10601511C5854537050040EF10EE
:10034000601673002030411122C6370400408545F5
:1003500013050440EF10401311C5854513050440F3
:10036000EF1040143244410173002030411122C685
:1003700037140040854513050480EF10E01011C5C7
:10038000854513050480EF10E011324441017300EC
:10039000203073002030411122C6374400409305BD
:1003A000505213050440EF10602119C593055052B7
:1003B00013050440EF10C024324441017300203083
:1003C0007300203073002030730020307300203021
:1003D0000965EF00703285476315F5000965EF0088
:1003E000B03373002030730020307300203073006E
:1003F00020307300203001A0411106C6B121F16503
:1004000001458546014693850520EF00F0148D2AAD
:10041000D52CEF00D01BB24001454101ADA1011127
:1004200022CC056426CA4AC84EC652C456C25AC017
:1004300006CE372B0000C93713048438B72A0000D2
:10044000372A0000B729000037290000B724000030
:10045000EF00301913050B14EF1080292285F124C9
:10046000EF00F01D13854A14EF1080282285752CAB
:10047000EF00301713058A14EF10802722857524AA
:10048000EF00F01D1385C914EF1080262285712C12
:10049000EF00701913050915EF10802522857124CE
:1004A000EF00501613854415EF1080242285B52CDB
:1004B0003725000013058515EF108023EF00301A53
:1004C00041BF411106C60DE1A146014693058004D6
:1004D000130520309D25A146014693058004130590
:1004E0003030B240410191AD85476310F50281463D
:1004F000014693058004130520208125814601468D
:100500009305800413053020E9BFB2404101828089
:10051000411106C611E9130520309D2E81451305B2
:100520003030B2404101ADA685476319F50013058F
:100530002020B92E814513053020E5B7B240410196
:100540008280411122C406C62E8401ED8145130527
:1005500020303D2EA285130530302244B2404101A7
:1005600005AE8547631AF5008145130520200D2649
:10057000A28513053020D5B7B240224441018280C4
:10058000B7170240DC4337177A0013070720C983E7
:10059000BD8BB387E7023727F40013070740F165E7
:1005A00085460146938505200145BA9723A8F18029
:1005B0006F00807A011189674AC803A9C71722CC46
:1005C00026CA4EC606CEAE89B2840144634A940060
:1005D000F240624426854249D244B2490561828094
:1005E000930500044A85EF00B07C7DD9B38789006C
:1005F000838507004A850504C205C181EF00B07AF2
:10060000F1B7B71702409843B706FFF841111367D7
:10061000170098C3D84337060200758FD8C3984394
:10062000B706F7FEFD16758F98C39843B706FCFF13
:10063000FD16758F98C3D843B70681FFFD16758FD9
:10064000D8C337079F0098C702C402C69843C16643
:10065000558F98C3B7160240130700509C42F18F84
:100660003EC6A24785073EC4B24781E7A247E3974B
:10067000E7FEB71702409C431397E7006352070851
:1006800085473EC632478547631AF706B7270240BB
:100690009843B706C1FFFD161367070198C3984337
:1006A000719B98C398431367270098C3B7170240FC
:1006B000D843D8C3D843D8C3D843D8C3D843758FF9
:1006C000D8C3D843B7062500558FD8C39843B7067B
:1006D0000001558F98C3984393166700E3DD06FE2B
:1006E000D843B7160240719BD8C3D843136727007D
:1006F000D8C32147DC42B18BE39EE7FE41018280F3
:1007000002C649B783A7018137177A00130707206C
:10071000B3D7E70293F7F70F238BF1801307803EDF
:10072000B387E702239AF1808280B7F700E023A025
:10073000070003D7418123820700A3820700238398
:1007400007003305A702A3830700054798C337F7BF
:1007500000E05C43E37FF5FE828013070008630C32
:10076000E50C797122D426D24AD04ECE52CC935782
:10077000550006D613FA77001374F501B684B289D2
:100780002E89B5E385451145EF0030158547339433
:10079000870042044180231281006319F900939776
:1007A0000401C183A18391E38D473EC489670A0A8E
:1007B0009387C715D29793F4F40F26C684434C0051
:1007C0002685EF00807985476317F9004E86A2855C
:1007D0002685EF00B004B250225492540259F249D7
:1007E000624A4561828005476395E700854521455A
:1007F00061BF09476395E7008545414571B70D47DE
:100800006396E700854513050002BDBF1147639657
:10081000E70085451305000485BF15476396E7008B
:100820008545130500088DB71947E391E7F685451F
:100830001305001091BF8280B7E700E07D5723A029
:10084000E71823A2E7188280011106CE9387418220
:1008500085462384D70003A54182DC435D8D333573
:10086000A0002AC6D13FF24032450561828083A6AE
:10087000418237E700E0938741822320D710DC4391
:100880002322F710828001E523860182CDB7828082
:10089000135785008966931727009386C616B69767
:1008A0009C4383D7C702B385F50289679387077195
:1008B000B3D5F50201EFB75700100D899387D7B074
:1008C0003E95C2050A05C1810CC182808547631728
:1008D000F700B70700100D89B507DDB78947631822
:1008E000F700B70700100D899387D710D1BF8D4748
:1008F000E31DF7FCB70700100D899387D720C9B710
:1009000093070020630BF51663E4A7069307101006
:100910006308F51063E4A70289476301F50E63E7F6
:10092000A70069C185476305F50C82808D47630D7B
:10093000F50C93070010630FF50C828093070011EC
:100940006302F51063EBA700930720106300F50E18
:10095000930730106302F50E828093072011630025
:10096000F5106367F50E930730116301F51082806F
:10097000930730216302F51663ECA702930730203A
:100980006300F51263EBA70093071020630DF50ECB
:1009900093072020630FF50E828093071021630FC9
:1009A000F51063E4A712930700216302F51082801B
:1009B000930700306307F51463EBA7009307002249
:1009C0006303F512930710226306F51282809307E2
:1009D00020306306F514636DF5129307303063071A
:1009E000F514828093068031014685452145B5B3D3
:1009F00093068031014685452545D5BF9306803154
:100A0000014685452945E5B7930680310146854570
:100A10002D45F1BF93068031014685450145C1BF93
:100A200093068031014685450545D1B7930680314F
:100A300001468545094565BF9306803101468545D8
:100A40000D4575B793068031014685453D4545B74F
:100A500093068031014685451305300249BF930650
:100A60008031014685451305A00251B793068031B8
:100A7000014685451305B0029DBF930680310146AE
:100A800085451945ADB793068031014685451D451D
:100A9000B9BF93068031014685451305000281BF29
:100AA00093068031014685451305100289B79306E8
:100AB0008031014685451305600415BF93068031DA
:100AC00001468545130570041DB793068031014624
:100AD00085451305800421BF930680310146854575
:100AE0001305900429B79306803101468545130507
:100AF0004002F5BD9306803101468545130550023D
:100B0000FDB5930680310146854513056002C5B5E4
:100B1000930680310146854513057002C9BD9306D1
:100B200080310146854513058002D1B59306803199
:100B300001468545130590025DBD397106DE22DC54
:100B400026DA4AD8AA844ED652D4B689328A2EC61C
:100B5000453BB245B7A74A049387072033D6B7026F
:100B600013D984004A8523A8F1800A09418213041D
:100B700016003304B40233D487029305F4FFC20590
:100B8000C181C92085450545892B93170401C1837F
:100B9000B387470309641304047141671307070609
:100BA0003AC809671307C7163A99231C0100B3D73F
:100BB0008702231E010003240900231BF10093F781
:100BC000340085EB0C082285D92385452285EF006A
:100BD000D004CE852285EF00B00522858545EF0043
:100BE0001002F2506254D2544259B259225A216131
:100BF00082800547639EE7000C082285292D228507
:100C00008545EF009001CE852285EF009003F1B776
:100C100009470C082285639CE700452D2285854500
:100C2000EF00A07FCE852285EF0050037DB7EF0057
:100C3000E07422858545EF00407ECE852285EF0059
:100C4000100361BF011122CC26CA4AC806CE2A84ED
:100C50002E89B28415ED0565854513050580B529F6
:100C600089679387C7160A043E9408404C002314F2
:100C700021012312910023150100231301002306F3
:100C800001005129F2406244D24442490561828008
:100C900085476315F50085458521D9B78947E30C5C
:100CA000F5FE8D47E31EF5FA85451145F5B741116F
:100CB00006C605E18547639EF50893068031014627
:100CC0002545613C9146014681452945B240410197
:100CD00069B48947631FF500930680310146854555
:100CE000130560029D3C9146014681451305700243
:100CF000F1BFC147631DF50093068031014685456C
:100D00000945A13C9146014681450D45C1B7930770
:100D10000002631FF50093068031014685451305E7
:100D2000A002253C9146014681451305B00279BFDA
:100D300093072002631FF5009306003101468545A5
:100D40001305A004193C9146014681451305B004E2
:100D5000B5BFB24041018280797122D426D24AD0F7
:100D60004ECE06D62A84AE843289B68931E18545D5
:100D70001165A526CE854A851D3FB7070C003EC4E8
:100D800089679387C7170A043E9400408A8526C066
:100D9000228502C223160100292F22858545EF00F6
:100DA000C07EB250225492540259F2494561828069
:100DB00085476317F500854537050200352E5DBF71
:100DC0008947E319F5FA854537050400C5BF411188
:100DD000014506C6EFF0EFEEB240054541016FF068
:100DE0004FEE411122C4096493050471014506C602
:100DF000EFF00FF2930504712244B2400545410122
:100E00006FF00FF1411122C409649305047101458B
:100E100006C6EFF00FF3930504712244B240054576
:100E200041016FF00FF241118145014506C6EFF017
:100E30002FEEB2408145054541016FF06FED8565AC
:100E4000411193858538014506C6EFF06FECB2403D
:100E5000896593850571054541016FF06FEB8965E3
:100E6000411193850571014506C6EFF06FEAB24066
:100E7000856593858538054541016FF06FE99701D8
:100E800000209381219F174100201301A1171715FE
:100E900000001305E53597F5FF1F9385A51613860A
:100EA000018163FAC5008322050023A055001105C6
:100EB0009105E3EAC5FE138501819385418363773C
:100EC000B500232005001105E36DB5FE93028008EF
:100ED00073A0023097F2FFFF9382421693E2120052
:100EE00073905230EFF0EFF197F2FFFF938262536D
:100EF00073901234730020309317350063DA0700C3
:100F0000B707024083A707407D8D3335A00082805C
:100F1000B70702409C43CDBF9317350063D7070046
:100F2000B707024023A2A7408280B7070240C8C388
:100F30008280B70701401387074083A70740584BBB
:100F4000698F09C77D8D3335A0008280014582807D
:100F5000B707014023AAA74082809C4513F70701E9
:100F600013F8F70001C7D8413368E80083D50500BE
:100F700013F7F50F39C318418146854E3D4F930F46
:100F8000800293028004214E3396DE00B3F8C50040
:100F9000631116039398260033131F011343F3FFC5
:100FA0003377E300B318180133E7E800639FF705D0
:100FB00050C98506E39AC6FD18C11307F00F637583
:100FC000B70454412146854E3D4F930F8002930252
:100FD0008004414EB398CE0033F715016392E802C6
:100FE0001317260001173313EF001343F3FFB376F3
:100FF000D3003317E800D98E639DF701232A15012A
:101000000506E319C6FD54C18280E39457FA10C95E
:101010004DB7E39757FE23281501DDB719C20CC958
:1010200082804CC98280371702405C439146B18B65
:101030006385D700A1466388D706B7177A009387E0
:1010400007201CC1371602405C42370700201307F7
:1010500007009183BD8BBA9783C607001C41B3D7A5
:10106000D7005CC15442A1829D8ABA9683C606000D
:10107000B3D6D70014C55442AD829D8A3697034734
:101080000700B3D7E7005CC5584239839376370031
:101090003707002013070707369703470700B3D722
:1010A000E7021CC982805C435443C983BD8B1396FD
:1010B000F60089076349060037173D0013070790BC
:1010C000B387E702BDBF58439316E700E3C606FEA9
:1010D00037177A0013070720E5B799C5371702407D
:1010E0001C4F5D8D08CF8280B7170240984F134583
:1010F000F5FF798D88CF828099C5371702405C4F04
:101100005D8D48CF8280B7170240D84F1345F5FF59
:10111000798DC8CF82808357050037370140130788
:1011200007C0C207C1836300E50237070040630CB4
:10113000E500130707406308E50037170040130771
:1011400007806317E50003D7250093F7F7F8D98FD9
:1011500003D7650093F7F7CFC207C183D98F231058
:10116000F50083D745002316F50283D70500231425
:10117000F502B7370140938707C06316F50083C7B0
:1011800085002318F5028547231AF50082808357CE
:10119000050203D6050003D82500C207C183F99BC9
:1011A000C207C1832310F502835705028356450009
:1011B00003578501C207C183420741831377C7F8EC
:1011C000518F03D68500F59BC20633660601D18F89
:1011D00037360140130606C0C1826313C50203D629
:1011E000A500DD9B03D8E500D18F03D64500ED9B1C
:1011F00093F6F6CFD18F03D6C50033660601D18EA4
:101200002312D500231CE50003D76500231AE5024D
:101210002310F50282808357050265771307F7CF05
:10122000C207C183BD9BC207C1832310F502835748
:1012300005028356450003D88500C20713960601B0
:1012400083568501C18393F7F7FD758F83D605001B
:101250004182A206558F83D6250042074183B3E61B
:1012600006019206D58FB7360140C207938606C0A5
:10127000C1836311D50483D6A50093F7F7F703D88C
:10128000C5009206D58F83D64500C207C18392065A
:1012900093F7F7FBD58FFD769386F63FF18E03D655
:1012A000E500C207C183336606010A06D18E139694
:1012B000060141822312C500231CE50003D7650007
:1012C000231CE5022310F50282808357050203D810
:1012D0008500C207C18393F7F7EFC207C1832310CC
:1012E000F50283570502835645000357C501C2071F
:1012F00013960601420783D6050041831377C7F88A
:10130000558F83D62500C18393F7F7DFB3E6060137
:10131000A206D58FB7360140C207938606C0418228
:10132000C1836312D504FD769386F67FF58F83D64D
:10133000A50003D8C500A206D58F83D64500C207F5
:10134000C183A20693F7F7BFD58FF576FD16F18E10
:1013500003D6E500C207C183336606011206D18EAB
:101360001396060141822312C500231EE50003D710
:101370006500231EE5022310F50282800357050253
:10138000FD77FD17F98F2310F502035805028356E8
:1013900045008357C501657703D605001307F7CFCE
:1013A0007D8FF9772206FD17518FB3F7070103D61A
:1013B000250003D88500C2064207336606013206BF
:1013C000D18F37360140C207130606C0C182418360
:1013D000C183631BC50071767D16F18E03D6C500EF
:1013E0001A06D18EC206C1822312D500231EE50043
:1013F00003D765002310E5042310F502828083578C
:10140000050091C593E717002310F5008280C207FD
:10141000C183F99BC207C183C5BF8357450491C5EA
:101420002167D98F2312F5048280C607C583DDBFEB
:1014300083578501C207C183DD9BDD8D231CB50069
:10144000828003578501FD779387F77FF98FA20587
:10145000CD8FC207C183231CF50082808357C5014D
:10146000C207C183DD9BDD8D231EB500828003573B
:10147000C501FD779387F77FF98FA205CD8FC2074E
:10148000C183231EF5008280835705010355C500E3
:10149000ED8F4205418189C76D8D3335A000828073
:1014A0000145828093C5F5FFC205C1812318B500AF
:1014B000828083560501F577FD17F58F83D6650089
:1014C000397122DC06DED58F03D7C5002318F5005D
:1014D0008356C500FD779387379FF58F83D64500E8
:1014E0002A842EC6D58F83D68500D58F83D6A500B6
:1014F000D58F2316F50083574501C207C18393F7A3
:10150000F7CFD98F231AF5006808313EB74701405D
:1015100093870780B245631EF404A2578356C40024
:101520006547B387E702C206C186984163D50604C2
:1015300006070356C4004206B3D7E7021307400666
:101540004186B3D6E702B3F7E70292066357060275
:101550008E0793872703B3D7E70213F77700B367A4
:10156000D700C207C1832314F400F25062542161F2
:101570008280925765B70A076DBF9207938727034A
:10158000B3D7E702BD8BD58FE9BF81C98357C500AB
:101590000967D98F2316F50082800357C500F977B4
:1015A000FD17F98FC5BF93F5F51F2312B500828093
:1015B000035505006D8D3335A000828013F7F50FBC
:1015C00085461583B397B6006313D7020357C5004A
:1015D000F98F0357050001454207418381CB05453B
:1015E000A181B315B5006D8F3335E0008280894647
:1015F0006315D70003570501E1BF03574501C9BF74
:10160000A1818547B397B70093C7F7FFC207C1838E
:101610002310F5008280011126CA4AC806CE22CCCA
:101620004EC652C4AA842E8901C51C4D91E3ED29F2
:101630009C4C804499E32685C52997170000938721
:1016400027B7631CF402C0408357C400A18BB1C705
:101650001C48A1C7FD59294A1C4483450900FD17B0
:10166000B1E91CC463DE07062286A9452685412808
:10167000FD576308F502294535A0971700009387A9
:1016800027B56314F4008044C1B79717000093870F
:1016900027B0E31BF4FAC04445BFA2852685052286
:1016A00055D97D55F2406244D2444249B249224A5A
:1016B000056182801CC4050963D70700184C63CB01
:1016C000E700638945011C401387170018C0238079
:1016D000B70059B7228626851D20E31F35F7D1B7FD
:1016E0001C401387170018C029472380E70061B703
:1016F00097F7FF1F93874798AA85884329BF011151
:1017000022CC26CA4AC806CE4EC6AA842E89328466
:1017100001C51C4D91E3092997170000938747A93C
:101720006319F406C0401C4C1CC48357C400A18B31
:10173000C9C31C48BDCF1C4808409379F90F1379E1
:10174000F90F1D8D5C486346F500A2852685752C32
:101750002DE51C440505FD171CC41C40138717000C
:1017600018C0238037015C486389A7008357C400F1
:10177000858B81CBA9476316F900A2852685712444
:101780000DEDF24062444A85D2444249B2490561B6
:101790008280971700009387A7A36314F400804406
:1017A00059B7971700009387A79EE31EF4F6C0442D
:1017B0009DBFA285268521203DDD7D59D9B74111E8
:1017C00097F7FF1F9387478B26C2844322C44AC0E2
:1017D00006C62A892E8489C49C4C99E32685A926AD
:1017E000971700009387C79C631CF402C04003173F
:1017F000C40093170701C18393F68700B5EE93F6F3
:1018000007019DEEA5472320F9001367070423165F
:10181000E4007D55B2402244924402494101828055
:10182000971700009387C79A6314F4008044C1B7E8
:10183000971700009387C795E31BF4FAC04445BF90
:10184000918B8DC74C5889C9930744046384F50074
:101850004A85252B232A04028357C400232204002F
:1018600093F7B7FD2316F4001C481CC08357C4002F
:1018700093E787002316F4001C4881EF8357C400C8
:101880001307002093F707286385E700A2854A85A0
:10189000B9298357C40013F7170005C75C482324F0
:1018A0000400B307F0401CCC1C480145A5F7831782
:1018B000C40013F7070839DF93E707042316F40081
:1018C00089BF898B014791E3584818C4F1BF83D77A
:1018D000C500011122CC26CA06CE4AC84EC613F74F
:1018E0008700AA842E8471EFD841634DE000B8418F
:1018F000634AE0000145F2406244D2444249B249A1
:101900000561828058547DD703A90400939637015E
:1019100023A0040063DD060670488357C400918B42
:1019200099C75C401D8E5C5899C33C401D8E5C5429
:101930000C50814626858297FD570357C400631DCE
:10194000F5009440F54763E8D706B70740208507C0
:10195000B3D7D700858BA5C31C48232204001CC025
:101960009317370163D80700FD576314F5009C40B7
:1019700091E368C84C5823A02401ADDD93074404CB
:101980006384F50026851121232A0402A5B70C5093
:101990000146854626850297FD572A86E31FF5F600
:1019A0009C40A5DF75476385E70059476394E704CA
:1019B00023A0240181B7136707042316E4007D5593
:1019C0001DBF83A90501E38709F203A905008D8BDB
:1019D00023A0350133093941014791E3D84918C49F
:1019E000E35A20F11C540C50CA864E8626858297F5
:1019F0006349A0008357C40093E707042316F4004B
:101A00007DBFAA993309A940E1BF9C49B9CF011113
:101A100022CC06CE2A8411C51C4D81E72EC6292270
:101A2000B245970700009387A778639BF5004C4069
:101A30008397C50095C722856244F240056141BD88
:101A4000970700009387C7786394F5000C44CDB7DF
:101A5000970700009387C773E39CF5FC4C44C9BF0C
:101A6000F240624401450561828001458280411156
:101A700022C406C62A842316B5002317C5002320D6
:101A80000500232205002324050023220506232820
:101A90000500232A0500232C050021468145130556
:101AA000C505EFE0EFE9970700009387E7475CD0B3
:101AB000970700009387474A1CD497070000938735
:101AC000874E5CD4970700009387475100D01CD8FD
:101AD000B24022444101828097050000938525F39E
:101AE000A9A2411126C2130680069384F5FFB38490
:101AF000C4024AC02E8922C406C693854407052E17
:101B00002A8401CD2320050023222501310508C4A4
:101B1000138684068145EFE0AFE22285B24022447D
:101B200092440249410182801C4DADE3411106C639
:101B300022C497070000938767FA1CD5938781809A
:101B40009C43232405042326050423280504631449
:101B5000F50085471CCD2A841D2848C0228505280C
:101B600008C422852D2048C44840014691450137CC
:101B700008440546A545E53D48440946C945C53DD7
:101B800085471CCCB24022444101828082804111B1
:101B90009387818026C284434AC006C69C4C22C4D7
:101BA0002A8999E326854937938484048044DC405C
:101BB000FD1763D607009C40B9CF8440C5BF03170B
:101BC000C40039E7C17785072322040623200400D7
:101BD00023220400232404005CC423280400232AB5
:101BE0000400232C0400214681451305C405EFE0C1
:101BF0002FD5232A0402232C0402232404042326A1
:101C000004042285B2402244924402494101828068
:101C10001304840671BF91454A85E13588C051FDA2
:101C2000B1472320F9000144E9BF797122D44AD099
:101C300052CC56CA5AC85EC606D626D24ECE2A8A7C
:101C4000AE8A130485040149054BFD5B09ECB250D3
:101C500022544A8592540259F249624AD24A424B6E
:101C6000B24B45618280044483294400FD1963D44A
:101C700009000040E1BF83D7C400637BFB0083976A
:101C8000E40063877701A6855285829A3369A900AB
:101C900093848406E1BF1971A6DAAE848395E500CA
:101CA000A2DC86DE328463DC050083D7C40023A077
:101CB000060093F707089DE39307004015A030083E
:101CC00036C68D2EB246E34205FE7247BD67F98FD8
:101CD0007977BA9793B717009CC2F9BF93070004AE
:101CE0001CC0F6506654D65401450961828083D7E2
:101CF000C500011122CC06CE26CA4AC8898B2E8483
:101D000089CF930774041CC01CC885475CC8F24087
:101D10006244D24442490561828074003000AA8442
:101D20009D3FA2452A892685192201ED8317C4000B
:101D300013F7072069FFF19B93E727002316F400B0
:101D4000C9B797070000938767D99CD48357C4000D
:101D500008C008C893E707082316F400A2475CC828
:101D6000B24789CF8315E4002685D52C01C9835756
:101D7000C400F19B93E717002316F4008357C400B7
:101D80003369F9002316240159B7CDC183A7C5FFD4
:101D9000411122C406C626C21384C5FF63D30700BF
:101DA0003E94AA843926938781819C4399EB232210
:101DB000040023AC81802244B24026859244410134
:101DC000D5AC637EF40014403307D4006396E7007B
:101DD0009843DC43369718C05CC0E1BFBA87D8434C
:101DE00019C3E37DE4FE94433386D700631F860066
:101DF0001040B29694C33386D700E31EC7FA10434F
:101E00005843B29694C3D8C37DB76375C400B14735
:101E10009CC055B71040B306C4006316D7001443E6
:101E20005843B29614C058C0C0C371B78280011124
:101E300026CA93843500F19806CE22CC4AC84EC6F5
:101E4000A104B14763F1F404B14463E0B4042A8906
:101E50008D249387818198433A8431E09387C181AF
:101E60009C4391E781454A85512823AEA180A685F0
:101E70004A856920FD5963173507B1472320F900CA
:101E80004A850D2C29A0E3D204FCB1471CC10145B1
:101E9000F2406244D2444249B249056182801C400A
:101EA000858F63CE0702AD4663F6F6001CC03E94F4
:101EB00004C031A05C406312870223ACF1804A85E4
:101EC000D52A1305B4009307440061993307F54000
:101ED00061D33A94898F1CC065BF5CC3CDB722879C
:101EE0004040A5BF130435007198E30385FCB3059A
:101EF000A4404A852120E31D35FB41B7411122C48E
:101F00002A842E8523A8018206C6112CFD5763174B
:101F1000F500938701839C4391C31CC0B2402244C7
:101F200041018280411122C42E848395E50006C6BA
:101F30005922634905007C48AA977CC8B2402244D4
:101F4000410182808357C4007D777D17F98F231666
:101F5000F400EDB783D7C500011122CC26CA4AC8C8
:101F60004EC606CE93F70710AA842E843289B6890E
:101F700091C78395E5008946014631228357C40005
:101F80007D777D17F98F2316F4008315E4006244F2
:101F9000F240CE864A86B24942492685D24405613E
:101FA0003DA8411122C42E848395E50006C6E12890
:101FB000FD570357C400631BF500FD77FD17F98F2C
:101FC0002316F400B2402244410182808567D98FF4
:101FD0002316F40068C8FDB78395E50005A84111F4
:101FE00022C42A842E85B285368623A8018206C69D
:101FF000EFE04FDCFD576317F500938701839C43A7
:1020000091C31CC0B240224441018280411122C4CC
:102010002A842E8523A8018206C6E120FD57631776
:10202000F500938701839C4391C31CC0B2402244B6
:1020300041018280411122C42A842E85B28523A8C1
:10204000018206C66D20FD576317F5009387018353
:102050009C4391C31CC0B240224441018280411183
:1020600022C42A842E8523A8018206C67920FD5722
:102070006317F500938701839C4391C31CC0B24052
:10208000224441018280411122C42A842E85B285D6
:10209000368623A8018206C6BD20FD576317F500CA
:1020A000938701839C4391C31CC0B24022444101E9
:1020B000828082808280411122C42A842E85B2854A
:1020C000368623A8018206C6A920FD576317F500AE
:1020D000938701839C4391C31CC0B24022444101B9
:1020E00082809307800523A8F1827D558280930723
:1020F000800523A8F1827D5582809307800523A85F
:10210000F182014582809307800523A8F1827D55E5
:1021100082809307800523A8F1827D558280938772
:1021200001829C4391C73E9523A0A1823E85828077
:10213000938741833E9523A0A1823E858280000043
:1021400031000000320000003300000034000000C5
:102150003500000036000000370000000008014094
:10216000000C01400010014000140140002C01400F
:10217000000000400004004000080040003801401A
:102180000044004000480040004C004000000000B7
:10219000000000000000000000000000000000003F
:1021A000000000000000000000000000000000002F
:1021B000000000000000000000000000000000001F
:1021C000000000000000000000000000000000000F
:1021D00000000000000000000000000000000000FF
:0C21E000000000000000000000000000F3
:1021EC0000000000010203040102030406070809B1
:1021FC0000000000AC210000CC2100008C2100006C
:10220C0000000000000000000000000000000000C2
:10221C0000000000000000000000000000000000B2
:10222C0000000000000000000000000000000000A2
:10223C000000000000000000000000000000000092
:10224C000000000000000000000000000000000082
:10225C0002040608100000201000002000000000FE
:00000001FF
