:100000006F00E073130000001300000013000000F5
:100010001300000013000000130000001300000094
:100020001300000013000000130000001300000084
:08003000130000007300100032
:100038006FF09FFC000000006F00C02F6F00C02F02
:1000480000000000000000000000000000000000A8
:100058000000000000000000000000000000000098
:100068006FF09FF9000000006FF01FF9000000001A
:100078006FF09FF86FF05FF86FF01FF86FF0DFF721
:100088006FF09FF76FF05FF76F00000B6F00000BCA
:100098006F00E00B6F00200C6F00200C6F00E02653
:1000A8006F00E0266F00E0266F00E0266F00C02793
:1000B8006F00C0276F00C0276F00E00A0000000033
:1000C8000000000000000000000000006F00200990
:1000D8006F00A0096F00000C6F00200E6F00601207
:1000E8006F0060196F00C01A6F00E01C6FF0DFF03E
:1000F8006FF09FF06FF05FF06FF01FF06FF0DFEFC1
:100108006FF09FEF6F00401D6F00401D6F00A01F34
:100118006F0020056FF05FEE6FF01FEE6FF0DFED00
:1001280000000000000000000000000000000000C7
:080138000000000000000000BF
:10014000730020300945752585476314F50009457E
:10015000C125730020301145652D730020307300D8
:100160002030730020307300203073002030730083
:100170002030411122C63734014093050008130591
:1001800004C0EF00500519C593050008130504C00D
:10019000EF0030063244410173002030411122C685
:1001A000373401408545130504C0EF00D00211C566
:1001B0008545130504C0EF00D003324441017300AC
:1001C0002030411122C63734014093050004130545
:1001D00004C0EF00500019C593050004130504C0C6
:1001E000EF0030013734014093050002130504C0CD
:1001F000EF00607E19C593050002130504C0EF00EF
:10020000407F3244410173002030411122C637340F
:1002100001408945130504C0EF00E07B11C5894505
:10022000130504C0EF00E07C37340140914513050D
:1002300004C0EF00407A11C59145130504C0EF00DA
:10024000407B37340140A145130504C0EF00A0787E
:1002500011C5A145130504C0EF00A0793734014052
:10026000C145130504C0EF00007711C5C145130552
:1002700004C0EF000078324441017300203085450E
:1002800037050040EF00207511C585453705004052
:10029000EF00207673002030411122C63704004061
:1002A000854513050440EF00007311C5854513050E
:1002B0000440EF00007432444101730020304111CA
:1002C00022C637140040854513050480292709C537
:1002D000854513050480312F3244410173002030DD
:1002E00073002030411122C637440040930550521C
:1002F00013050440EF00100019C593055052130573
:100300000440EF0070033244410173002030730059
:1003100020307300203073002030730020300965D6
:10032000612985476314F50009657D21730020303C
:1003300073002030730020307300203073002030B1
:1003400001A0411106C66924F165014585460146B3
:10035000938505209D2E05289D22B240014541012F
:100360005DAC411106C6F13F93060031014685455B
:1003700013056004952A930600310146854513054F
:1003800070049D22D5B7B7170240DC4337177A00B7
:1003900013070720C983BD8BB387E7023727F40013
:1003A00013070740F1658546014693850520014501
:1003B000BA9737070020232CF70001AEB717024089
:1003C0009843B706FFF841111367170098C3D84345
:1003D00037060200758FD8C39843B706F7FEFD169F
:1003E000758F98C39843B706FCFFFD16758F98C3A9
:1003F000D843B70681FFFD16758FD8C337079F0016
:1004000098C702C402C69843C166558F98C3B716F1
:100410000240130700509C42F18F3EC6A247850759
:100420003EC4B24781E7A247E397E7FEB717024011
:100430009C431397E7006352070885473EC632473F
:100440008547631AF706B72702409843B706C1FFEE
:10045000FD161367070198C39843719B98C398438F
:100460001367270098C3B7170240D843D8C3D843AF
:10047000D8C3D843D8C3D843758FD8C3D843B70699
:100480002500558FD8C39843B7060001558F98C3F0
:10049000984393166700E3DD06FED843B716024083
:1004A000719BD8C3D84313672700D8C32147DC42C8
:1004B000B18BE39EE7FE4101828002C649B7B707D0
:1004C000002083A7870137177A0013070720B3D7C7
:1004D000E70293F7F70F2387F1801307803EB38776
:1004E000E7022396F1808280130700086309E50C78
:1004F000797122D426D24AD04ECE52CC9357550091
:1005000006D613FA77001374F501B684B2892E89E2
:10051000B9EF854511455121854733948700420441
:100520004180231281006319F90093970401C1836C
:10053000A18391E38D473EC485670A0A938707B577
:10054000D29793F4F40F26C684434C002685F124F9
:1005500085476316F9004E86A28526854126B2504E
:10056000225492540259F249624A456182800547F9
:100570006395E7008545214579BF09476395E70005
:100580008545414549BF0D476396E70085451305FD
:10059000000251B711476396E70085451305000433
:1005A0009DBF15476396E700854513050008A5B76D
:1005B0001947E393E7F6854513050010A9BF82802C
:1005C000B7E700E07D5723A0E71823A2E718828051
:1005D00001113707002006CE9307070285462384C2
:1005E000D70003250702DC435D8D3335A0002AC602
:1005F000C13FF240324505618280B707002083A6E3
:10060000070237E700E0938707022320D710DC4377
:100610002322F710828001E5238C0180F9BF8280BC
:10062000411106C605E18547639EF50893068031B2
:1006300001462545553D9146014681452945B24033
:1006400041015DB58947631FF5009306803101467E
:10065000854513056002493D9146014681451305D4
:100660007002F1BFC147631DF5009306803101465A
:1006700085450945953D9146014681450D45C1B7E2
:1006800093070002631FF5009306803101468545FC
:100690001305A002913D9146014681451305B00224
:1006A00079BF93072002631FF500930600310146CE
:1006B00085451305A0040D3D91460146814513056E
:1006C000B004B5BFB24041018280797122D426D2F4
:1006D0004AD04ECE06D62A84AE843289B68929E124
:1006E000854511655D2CCE854A851D3FB7070C00F9
:1006F0003EC48567938707B60A043E9400408A8506
:1007000026C0228502C223160100DD2C22858545E4
:10071000E126B250225492540259F2494561828036
:1007200085476317F500854537050200712465BFCD
:100730008947E31AF5FA854537050400C5BF9701D7
:1007400000209381210D175100201301A18B170563
:10075000000013052542970500209385A58A13867E
:10076000818063FAC5008322050023A0550011058E
:100770009105E3EAC5FE138581809385C181637786
:10078000B500232005001105E36DB5FE9302800836
:1007900073A00230970200009382428A93E2120013
:1007A00073905230EFF09FC1970200009382A2BB7A
:1007B00073901234730020309317350063DA07000A
:1007C000B707024083A707407D8D3335A0008280A4
:1007D000B70702409C43CDBF9317350063D707008E
:1007E000B707024023A2A7408280B7070240C8C3D0
:1007F0008280B70701401387074083A70740584B03
:10080000698F09C77D8D3335A000828001458280C4
:10081000B707014023AAA74082809C4513F7070130
:1008200013F8F70001C7D8413368E80083D5050005
:1008300013F7F50F39C318418146854E3D4F930F8D
:10084000800293028004214E3396DE00B3F8C50087
:10085000631116039398260033131F011343F3FF0C
:100860003377E300B318180133E7E800639FF70517
:1008700050C98506E39AC6FD18C11307F00F6375CA
:10088000B70454412146854E3D4F930F8002930299
:100890008004414EB398CE0033F715016392E8020D
:1008A0001317260001173313EF001343F3FFB3763A
:1008B000D3003317E800D98E639DF701232A150171
:1008C0000506E319C6FD54C18280E39457FA10C9A6
:1008D0004DB7E39757FE23281501DDB719C20CC9A0
:1008E00082804CC98280371702405C439146B18BAD
:1008F0006385D700A1466388D706B7177A00938728
:1009000007201CC1371602405C423707002013073E
:1009100007009183BD8BBA9783C607001C41B3D7EC
:10092000D7005CC15442A1829D8ABA9683C6060054
:10093000B3D6D70014C55442AD829D8A369703477B
:100940000700B3D7E7005CC5584239839376370078
:100950003707002013070701369703470700B3D76F
:10096000E7021CC982805C435443C983BD8B139644
:10097000F60089076349060037173D001307079003
:10098000B387E702BDBF58439316E700E3C606FEF0
:1009900037177A0013070720E5B799C537170240C4
:1009A0001C4F5D8D08CF8280B7170240984F1345CA
:1009B000F5FF798D88CF828099C5371702405C4F4B
:1009C0005D8D48CF8280B7170240D84F1345F5FFA1
:1009D000798DC8CF8280835705010355C500ED8FFF
:1009E0004205418189C76D8D3335A0008280014564
:1009F000828093C5F5FFC205C1812318B5008280AE
:100A000083560501F577FD17F58F83D6650039719B
:100A100022DC06DED58F03D7C5002318F5008356E8
:100A2000C500FD779387379FF58F83D645002A84CD
:100A30002EC6D58F83D68500D58F83D6A500D58FBA
:100A40002316F50083574501C207C18393F7F7CFFB
:100A5000D98F231AF50068087935B7470140938785
:100A60000780B245631EF404A2578356C40065474D
:100A7000B387E702C206C186984163D5060406071C
:100A80000356C4004206B3D7E70213074006418667
:100A9000B3D6E702B3F7E7029206635706028E0762
:100AA00093872703B3D7E70213F77700B367D7001D
:100AB000C207C1832314F400F25062542161828082
:100AC000925765B70A076DBF920793872703B3D77D
:100AD000E702BD8BD58FE9BF81C98357C500096780
:100AE000D98F2316F50082800357C500F977FD17CB
:100AF000F98FC5BF13F7F50F85461583B397B60079
:100B00006313D7020357C500F98F0357050001454A
:100B10004207418381CB0545A181B315B5006D8F97
:100B20003335E000828089466315D70003570501FD
:100B3000E1BF03574501C9BFA1818547B397B700FE
:100B400093C7F7FFC207C1832310F500828000001E
:100B500000080140000C0140001001400014014059
:100B6000003801400044004000480040004C004074
:100B70000000000001020304010203040607080943
:080B8000020406080000000059
:00000001FF
